:100000000C9434000C9451000C9451000C94510049
:100010000C9451000C9451000C9451000C9451001C
:100020000C9451000C9451000C9451000C9451000C
:100030000C9451000C9451000C9451000C945100FC
:100040000C9451000C9451000C947D000C945100C0
:100050000C9451000C9451000C9451000C945100DC
:100060000C9451000C94510011241FBECFEFD8E026
:10007000DEBFCDBF11E0A0E0B1E0EAE0FCE002C0ED
:1000800005900D92AC33B107D9F721E0ACE3B1E0B4
:1000900001C01D92A438B207E1F70E9453000C94EE
:1000A00003060C94000060E875E280E090E00E9496
:1000B000C30181E090E00E94BB000E94B8010E9451
:1000C000C90080E090E0CCE1D1E08C010F5F1F4FD0
:1000D0009F938F93DF93CF930E9426039FEF23ED8F
:1000E00080E3915020408040E1F700C000000F9075
:1000F0000F900F900F90C801E8CF1F920F920FB68C
:100100000F9211248F939F93EF93FF93CF93DF93DD
:1001100000D01F92CDB7DEB78091C00084FD27C00C
:100120008091C6008B8380913C0190E001968F7393
:1001300099278A8390913D018A81981751F0E09127
:100140003C01F0E08B81E45CFE4F82838A818093E6
:100150003C010F900F900F90DF91CF91FF91EF91A5
:100160009F918F910F900FBE0F901F9018958091C7
:10017000C6008983EECF9091C1009F7B9093C10010
:1001800080FF05C08091C10080688093C100789491
:100190000895EEE7F1E08EE091E09383828380E0C2
:1001A00091E0918380830895ECE3F1E080812181E7
:1001B00090E0805C9F4F821B910960E470E00E9498
:1001C000DC0208951F93CF93DF93182FD92FC62FEA
:1001D0000E94D400982FC81708F49C2FA12FBD2F80
:1001E00080E0891304C0DF91CF911F910895E091C1
:1001F0003D01E80FEF73F0E0E45CFE4F22812D93A8
:100200008F5FEFCFBF92CF92DF92EF92FF920F936B
:100210001F93CF93DF937C016B01B42E411135C046
:1002200090913C0180913D01C0E0D0E0981711F120
:10023000CC15DD05F8F487010C0F1D1F12C0E091ED
:100240003D01F0E0E45CFE4F8281F80181938F0173
:1002500080913D0190E001968F73992780933D0135
:1002600021960E94D400882319F0CC15DD0539F7BA
:10027000B110DECFCE01DF91CF911F910F91FF9092
:10028000EF90DF90CF90BF900895C0E0D0E0D0CF46
:1002900030913C0120913D01321791F0E0913D01F8
:1002A000F0E0E45CFE4F2281FC01208380913D015F
:1002B00090E001968F73992780933D0181E0089526
:1002C00080E00895CF93DF931F92CDB7DEB71982F8
:1002D000CE0101960E9448018823D1F38981082E1E
:1002E000000C990B0F90DF91CF910895FC01860FC0
:1002F000971FE817F90711F4862F08952091C00081
:1003000027FFFCCF2091C6002193F3CF61E070E07E
:100310000C947601FC0180E090E08617970709F4C1
:1003200008952091C00025FFFCCF019621912093D4
:10033000C600F3CFCF93DF931F92CDB7DEB789838B
:1003400061E070E0CE0101960E948A010F90DF917A
:10035000CF910895CF93C82F8A3019F48DE00E9471
:10036000AA018C2F0E949A0180E090E0CF9108951D
:1003700010923C0110923D018091C00087FF0895CA
:100380008091C600F9CFCF92DF92EF92FF926B017E
:100390007C01809164008D7F809364001092C00086
:1003A000C11486E9D806E104F10409F4D9C008F0C3
:1003B0005FC080E8C81685E2D806E104F10409F4BC
:1003C0009DC0E8F580E6C81689E0D806E104F1048E
:1003D00009F4BBC080ECC81682E1D806E104F10440
:1003E00009F4E2C08091C00082608093C00060E0A8
:1003F00079E08DE390E0A70196010E94F002215080
:100400003109410951095695479537952795211589
:1004100080E1380708F474C01092C00060E874E806
:100420008EE190E0A70196010E94F002215031096F
:1004300041095109569547953795279561C0C114D3
:100440008BE4D806E104F10409F487C080E8C816FB
:1004500080E7D806E104F10481F180E4C81688E35E
:10046000D806E104F10409F0BDCF24E430E048C02F
:10047000C11484E8D80683E0E806F10409F47EC0DC
:10048000F8F4C1148CE2D80681E0E806F10409F41E
:100490006AC0C11482ECD80681E0E806F10409F4D0
:1004A00065C0C11481EED806E104F10409F09ACFC9
:1004B0008091C00082608093C00022E230E020C0C2
:1004C00080E2C81681EAD80687E0E806F10409F45C
:1004D0005DC080E4C81682E4D8068FE0E806F10427
:1004E00009F45AC080E9C81680EDD80683E0E80612
:1004F000F10409F077CF23E030E002C027E630E0D6
:100500003093C5002093C40020913C0183E490E027
:10051000019709F04CC020933C018091C200866095
:100520008093C2008091C10080618093C10080915E
:10053000C10088608093C1000E94B80180E090E013
:10054000FF90EF90DF90CF9008958091C00082607F
:100550008093C00020E433E0D3CF23E330E0D0CF5A
:1005600029E130E0CDCF2CE030E0CACF8091C0004F
:1005700082608093C00020E130E0C2CF8091C00053
:1005800082608093C00028E030E0BACF8091C00044
:1005900082608093C000AFCF8091C0008260809362
:1005A000C00021E030E0ACCF2FEC30E0A9CF20E05C
:1005B000AFCF8CE391E0089597FB072E16F40094DB
:1005C00007D077FD09D00E94120307FC05D03EF446
:1005D000909581959F4F0895709561957F4F0895EF
:1005E000A1E21A2EAA1BBB1BFD010DC0AA1FBB1F37
:1005F000EE1FFF1FA217B307E407F50720F0A21BA9
:10060000B30BE40BF50B661F771F881F991F1A9415
:1006100069F760957095809590959B01AC01BD013F
:10062000CF010895AA1BBB1B51E107C0AA1FBB1F26
:10063000A617B70710F0A61BB70B881F991F5A956E
:10064000A9F780959095BC01CD010895A0E0B0E098
:10065000ECE2F3E00C94DC05AE014B5F5F4FFA0176
:1006600061917191AF0180918001909181010E940F
:100670003C03E2E00C94F805ABE0B0E0E2E4F3E028
:100680000C94CC057C013B018A01FC011782168287
:10069000838181FFDAC1CE0101965C01F70193816C
:1006A000F30193FD859193FF81913F01882309F424
:1006B0002FC1853239F493FD859193FF81913F01DC
:1006C000853229F4B70190E00E943E05E7CF912CD6
:1006D000212C312CFFE1F31538F08B32D9F090F456
:1006E0008032D9F0833249F137FC41C020ED280F28
:1006F0002A3070F536FE24C08AE0989E200D112421
:10070000922E0EC08D32A9F0803371F7232D216017
:10071000322E06C0832D8260382EE32DE4603E2EFB
:10072000F30193FD859193FF81913F018111D2CF18
:100730001EC0F32DF8603F2EF3CF232D2061E8CFAC
:10074000EAE02E9E200D1124222EF32DF062F3CF2D
:100750008E3229F436FCDCC0232D2064D9CF8C36B0
:1007600021F4832D8068382EDBCF8836C9F2982F8C
:100770009F7D95549330D8F08336C9F18337E9F1E2
:10078000833509F068C0280122E0420E511CF801AF
:10079000C080D18036FE45C0692D70E0C6010E9440
:1007A00028054C01F32DF0683F2E82010BC00C5F31
:1007B0001F4F9FE3998388248394912C6501F32D27
:1007C000FF773F2E33FC05C0822D90E088169906F6
:1007D00058F1522C8114910471F5552009F45ECF23
:1007E000B70180E290E00E943E055A94F6CFF801EE
:1007F000808189830E5F1F4FDECF2801F2E04F0E0C
:10080000511CF801C080D18036FE08C0692D70E00F
:10081000C6010E9433054C018201D1CF6FEF7FEFFB
:10082000F7CF6FEF7FEFBACFB70180E290E00E9481
:100830003E052A94C9CFF60137FC859137FE819198
:100840006F01B70190E00E943E0551105A9421E0DB
:10085000821A9108BFCF843611F08936C1F5F801AC
:1008600037FE2CC060817181828193810C5F1F4FA4
:10087000F32DFF763F2E97FF09C0909580957095D8
:1008800061957F4F8F4F9F4FF0683F2E2AE030E0F9
:10089000A5010E946E05C82ECA1836FE62C0232D1F
:1008A0002E7F422EC91408F09BC034FE05C032FCD6
:1008B00003C0832D8E7E482E892C55C060817181A6
:1008C000072E000C880B990B0E5F1F4FD1CF853779
:1008D000B9F4232D2F7ED22E2AE030E0F801D7FE86
:1008E00039C060817181828193810C5F1F4FA501A6
:1008F0000E946E05C82ECA18FD2DFF773F2ECDCF62
:10090000932D997FD92E8F3611F148F48835B9F09F
:10091000F701868197812B96E2E10C94E8058037F8
:1009200051F08837A9F7D4FE03C0FD2DF460DF2E07
:1009300020E130E0D3CFE92FE061DE2EF4CF34FEAA
:1009400003C0292F2660D22E20E132E0C7CF28E055
:1009500030E0C4CF6081718180E090E00E5F1F4F76
:10096000C6CF8C2C432C44FE44C0FE01EC0DF11D7F
:1009700080818033B9F5942D997E492EE42DE8705D
:100980005E2E43FC44C040FE3EC0821408F044C0CA
:100990002C0C922C981844FE44C0B70180E390E0E0
:1009A0000E943E0542FE07C041FC38C088E790E047
:1009B000B7010E943E05C91408F440C0CA94D12C66
:1009C000FFEFCF1ADF0ACA0CDB1CF60182916F0120
:1009D000B70190E00E943E05AC14BD04B1F7FDCE16
:1009E0008C2CC1CF42FC02C08394C8CF83948394E3
:1009F000C5CF842D867811F2F7CFB70180E290E061
:100A00000E943E0583948214C0F3512CC4CF8214FB
:100A1000E0F7522C5818BFCF9C2CBDCF88E590E052
:100A2000C7CF842D867839F241FE06C08BE247FCA1
:100A30008DE2B70190E0BDCF80E2F9CFB70180E34E
:100A400090E00E943E059A94B6CF8FEF9FEF63CF60
:100A5000FC010590615070400110D8F78095909589
:100A60008E0F9F1F0895FC0161507040019001108E
:100A7000D8F7809590958E0F9F1F08950F931F9321
:100A8000CF93DF93182F092FEB018B8181FD09C0D4
:100A90001FEF0FEF812F902FDF91CF911F910F91BB
:100AA000089582FF14C02E813F818C819D8128177B
:100AB00039073CF4E881F981CF0101969983888355
:100AC00010838E819F8101969F838E83E3CFE8857B
:100AD000F985812F0995892BA1F3DACFFA01AA278D
:100AE000283051F1203181F1E8946F936E7F6E5F71
:100AF0007F4F8F4F9F4FAF4FB1E03ED0B4E03CD01F
:100B0000670F781F891F9A1FA11D680F791F8A1F01
:100B1000911DA11D6A0F711D811D911DA11D20D068
:100B200009F468943F912AE0269F11243019305D22
:100B30003193DEF6CF010895462F4770405D419313
:100B4000B3E00FD0C9F7F6CF462F4F70405D4A3360
:100B500018F0495D31FD4052419302D0A9F7EACF28
:100B6000B4E0A6959795879577956795BA95C9F757
:100B700000976105710508959B01AC010A2E06944A
:100B80005795479537952795BA95C9F7620F731F03
:100B9000841F951FA01D08952F923F924F925F9240
:100BA0006F927F928F929F92AF92BF92CF92DF927D
:100BB000EF92FF920F931F93CF93DF93CDB7DEB7E2
:100BC000CA1BDB0B0FB6F894DEBF0FBECDBF099476
:100BD0002A88398848885F846E847D848C849B84CD
:100BE000AA84B984C884DF80EE80FD800C811B81DB
:100BF000AA81B981CE0FD11D0FB6F894DEBF0FBE0A
:0A0C0000CDBFED010895F894FFCF79
:100C0A000000000100000000000062010000000076
:100C1A00000200000000AA010000000053544449E9
:100C2A004F2053657269616C2048656C6C6F2E2089
:0C0C3A004C696E653A205B25645D0A0081
:00000001FF
