:100000000C9434000C9451000C9451000C94510049
:100010000C9451000C9451000C9451000C9451001C
:100020000C9451000C9451000C9451000C9451000C
:100030000C9451000C9451000C9451000C945100FC
:100040000C9451000C9451000C948C010C945100B0
:100050000C9451000C9451000C9451000C945100DC
:100060000C9451000C94510011241FBECFEFD8E026
:10007000DEBFCDBF12E0A0E0B1E0E6EDF0E102C0EE
:1000800005900D92A83AB107D9F722E0A8EAB2E0AC
:1000900001C01D92AB3FB207E1F70E944F010C94E3
:1000A00069080C94000082E291E00E947605FBCF83
:1000B00089E291E00C947605C201F10109950E9454
:1000C000610085EB91E00C947605CF93DF9387EC8C
:1000D00091E00E94760584ED91E00E947605CCEED9
:1000E000D2E085E0FE0111928A95E9F785EF91E073
:1000F0000E9476058DB79EB799838883E881F98140
:1001000082A193A19F938F9388E292E09F938F9314
:100110000E9460050F900F900F900F908CE292E07C
:10012000DF91CF910C947605CF92DF92EF92FF9200
:100130000F931F93CF93DF937C01EB0185E392E054
:100140000E9476056E018CE3C80ED11CC6010E9488
:1001500035048C01A60160E070E00E945905C801D9
:100160004096D8011D969C938E931C97CE018C9639
:100170001B969C938E931A971896EC921897199643
:10018000FC921997FE017096E00FF11F1596FC93F3
:10019000EE931497E382F4828FB781A38CE590E00D
:1001A00092A383A316968C911697807F16968C93B4
:1001B000C801DF91CF911F910F91FF90EF90DF90D9
:1001C000CF90089589E492E00E94760585E592E05B
:1001D0000E947605E091EE02F091EF028481958114
:1001E0009EBF8DBF86E692E00E947605FF93FFB723
:1001F000FF93EF93DF93CF93BF93AF939F938F932F
:100200007F936F935F934F933F932F931F930F931E
:10021000FF92EF92DF92CF92BF92AF929F928F9216
:100220007F926F925F924F923F922F921F92112472
:100230000F928CE792E00E9476050F901F902F900E
:100240003F904F905F906F907F908F909F90AF9076
:10025000BF90CF90DF90EF90FF900F911F912F9163
:100260003F914F915F916F917F918F919F91AF914E
:10027000BF91CF91DF91EF91FF91FFBFFF9187E891
:1002800092E00E947605089584EA92E00C94760547
:10029000FC019681907F6F70692B6683089560E8FA
:1002A00075E280E090E00E94D20281E090E00E943E
:1002B000CA010E94C7020E94D80180E391E00E9417
:1002C000760580E591E00E9476050E94650086E64D
:1002D00091E00E94760560E270E083E590E00E9484
:1002E00094009093A9028093A80260E270E088E5F0
:1002F00090E00E9494008AE791E00E94760589E8E8
:1003000091E00E9476050E94E2008DE991E00E9452
:10031000760589EA91E0FBCF1F920F920FB60F92FC
:1003200011248F939F93EF93FF93CF93DF9300D08C
:100330001F92CDB7DEB78091C00084FD27C08091A9
:10034000C6008B838091AA0290E001968F73992753
:100350008A839091AB028A81981751F0E091AA02AA
:10036000F0E08B81E655FD4F82838A818093AA025B
:100370000F900F900F90DF91CF91FF91EF919F9190
:100380008F910F900FBE0F901F9018958091C6000F
:100390008983EECF9091C1009F7B9093C10080FF35
:1003A00005C08091C10080688093C1007894089551
:1003B000E5EFF2E084E191E09383828386E091E0CF
:1003C000918380830895EAEAF2E08081218190E0C0
:1003D000805C9F4F821B910960E470E00E94EB03F8
:1003E00008951F93CF93DF93182FD92FC62F0E9404
:1003F000E301982FC81708F49C2FA12FBD2F80E090
:10040000891304C0DF91CF911F910895E091AB0251
:10041000E80FEF73F0E0E655FD4F22812D938F5FDB
:10042000EFCFBF92CF92DF92EF92FF920F931F9385
:10043000CF93DF937C016B01B42E411135C09091B5
:10044000AA028091AB02C0E0D0E0981711F1CC1560
:10045000DD05F8F487010C0F1D1F12C0E091AB02FF
:10046000F0E0E655FD4F8281F80181938F01809184
:10047000AB0290E001968F7399278093AB0221968F
:100480000E94E301882319F0CC15DD0539F7B1107E
:10049000DECFCE01DF91CF911F910F91FF90EF90B2
:1004A000DF90CF90BF900895C0E0D0E0D0CF3091E2
:1004B000AA022091AB02321791F0E091AB02F0E07A
:1004C000E655FD4F2281FC0120838091AB0290E034
:1004D00001968F7399278093AB0281E0089580E0A5
:1004E0000895CF93DF931F92CDB7DEB71982CE0167
:1004F00001960E9457028823D1F38981082E000CAF
:10050000990B0F90DF91CF910895FC01860F971FF3
:10051000E817F90711F4862F08952091C00027FFEE
:10052000FCCF2091C6002193F3CF61E070E00C94E2
:100530008502FC0180E090E08617970709F4089592
:100540002091C00025FFFCCF019621912093C60089
:10055000F3CFCF93DF931F92CDB7DEB7898361E0EE
:1005600070E0CE0101960E9499020F90DF91CF9129
:100570000895CF93C82F8A3019F48DE00E94B902F4
:100580008C2F0E94A90280E090E0CF9108951092F4
:10059000AA021092AB028091C00087FF089580915B
:1005A000C600F9CFCF92DF92EF92FF926B017C01F0
:1005B000809164008D7F809364001092C000C1140C
:1005C00086E9D806E104F10409F4D9C008F05FC057
:1005D00080E8C81685E2D806E104F10409F49DC05C
:1005E000E8F580E6C81689E0D806E104F10409F4CC
:1005F000BBC080ECC81682E1D806E104F10409F41E
:10060000E2C08091C00082608093C00060E079E029
:100610008DE390E0A70196010E94FF03215031096C
:10062000410951095695479537952795211580E140
:10063000380708F474C01092C00060E874E88EE1D6
:1006400090E0A70196010E94FF0321503109410962
:100650005109569547953795279561C0C1148BE48C
:10066000D806E104F10409F487C080E8C81680E7E1
:10067000D806E104F10481F180E4C81688E3D806C5
:10068000E104F10409F0BDCF24E430E048C0C11416
:1006900084E8D80683E0E806F10409F47EC0F8F4A3
:1006A000C1148CE2D80681E0E806F10409F46AC0BE
:1006B000C11482ECD80681E0E806F10409F465C0B3
:1006C000C11481EED806E104F10409F09ACF8091BB
:1006D000C00082608093C00022E230E020C080E24F
:1006E000C81681EAD80687E0E806F10409F45DC07F
:1006F00080E4C81682E4D8068FE0E806F10409F425
:100700005AC080E9C81680EDD80683E0E806F104F7
:1007100009F077CF23E030E002C027E630E03093E5
:10072000C5002093C4002091AA0283E490E00197C1
:1007300009F04CC02093AA028091C2008660809389
:10074000C2008091C10080618093C1008091C1008E
:1007500088608093C1000E94C70280E090E0FF9013
:10076000EF90DF90CF9008958091C00082608093D9
:10077000C00020E433E0D3CF23E330E0D0CF29E141
:1007800030E0CDCF2CE030E0CACF8091C000826055
:100790008093C00020E130E0C2CF8091C000826031
:1007A0008093C00028E030E0BACF8091C000826022
:1007B0008093C000AFCF8091C00082608093C00062
:1007C00021E030E0ACCF2FEC30E0A9CF20E0AFCF7C
:1007D0008AEA92E0089597FB072E16F4009407D05A
:1007E00077FD09D00E94210407FC05D03EF49095C6
:1007F00081959F4F0895709561957F4F0895A1E26F
:100800001A2EAA1BBB1BFD010DC0AA1FBB1FEE1F8A
:10081000FF1FA217B307E407F50720F0A21BB30BD5
:10082000E40BF50B661F771F881F991F1A9469F751
:1008300060957095809590959B01AC01BD01CF01AD
:100840000895AA1BBB1B51E107C0AA1FBB1FA61717
:10085000B70710F0A61BB70B881F991F5A95A9F769
:1008600080959095BC01CD0108950F931F93CF9370
:10087000DF938230910510F482E090E0E091F30282
:10088000F091F40220E030E0A0E0B0E0309799F47D
:100890002115310509F447C0281B390B24303105D7
:1008A000C0F58A819B816115710571F1FB0193830C
:1008B0008283FE0111C0408151810281138148175A
:1008C0005907F8F04817590799F4109761F01296F4
:1008D0000C93129713961C933296CF01DF91CF9110
:1008E0001F910F9108950093F3021093F402F4CF37
:1008F0002115310519F04217530718F49A01BD016B
:10090000EF01DF01F801C2CF9093F4028093F3026C
:10091000D0CFFE01E20FF31F819391932250310952
:1009200039832883DACF2091F1023091F202232B10
:1009300041F420910201309103013093F20220939F
:10094000F10220910001309101012115310541F49E
:100950002DB73EB74091040150910501241B350B82
:10096000E091F102F091F202E217F307A0F42E1BDE
:100970003F0B2817390778F0AC014E5F5F4F241703
:10098000350748F04E0F5F1F5093F2024093F1027B
:1009900081939193A2CFE0E0F0E09FCFCF93DF93DC
:1009A0000097D1F0FC01329713821282A091F302DA
:1009B000B091F402109799F420813181820F931F36
:1009C0002091F1023091F2022817390709F066C030
:1009D000F093F202E093F102DF91CF910895ED01DF
:1009E00020E030E0CE17DF0708F03FC04A815B818E
:1009F0009E0141155105B9F5E901FB83EA8349914F
:100A00005991C40FD51FEC17FD0761F480819181C6
:100A10000296840F951FE9019983888382819381CF
:100A20009B838A83E0E0F0E012968D919C9113976E
:100A30000097C9F52D913C911197CD010296820F37
:100A4000931F2091F1023091F2022817390721F605
:100A5000309761F51092F4021092F302B093F20213
:100A6000A093F102B9CFEA01BDCFD383C283408105
:100A70005181840F951FC817D90761F44E5F5F4FEE
:100A800088819981480F591F518340838A819B81B6
:100A9000938382832115310509F0AECFF093F402E0
:100AA000E093F30299CFFD01DC01BECF13821282E5
:100AB000D5CFDC0101C06D9341505040E0F708955F
:100AC000A0E0B0E0E6E6F5E00C944208AE014B5F32
:100AD0005F4FFA0161917191AF018091F70290919E
:100AE000F8020E94A205E2E00C945E080F931F93A7
:100AF000CF93DF93E091F702F091F802238121FF79
:100B000013C0EC0100E010E089916091F702709150
:100B1000F802DB011896ED91FC91199781110CC038
:100B20008AE00995892B11F00FEF1FEFC801DF91C3
:100B3000CF911F910F9108950995892B29F30FEFFC
:100B40001FEFE2CFABE0B0E0E8EAF5E00C9432084A
:100B50007C013B018A01FC0117821682838181FF9F
:100B6000DAC1CE0101965C01F7019381F30193FD97
:100B7000859193FF81913F01882309F42FC185322C
:100B800039F493FD859193FF81913F01853229F4DA
:100B9000B70190E00E94A407E7CF912C212C312CC3
:100BA000FFE1F31538F08B32D9F090F48032D9F0B0
:100BB000833249F137FC41C020ED280F2A3070F50F
:100BC00036FE24C08AE0989E200D1124922E0EC07D
:100BD0008D32A9F0803371F7232D2160322E06C0AB
:100BE000832D8260382EE32DE4603E2EF30193FDC9
:100BF000859193FF81913F018111D2CF1EC0F32DCA
:100C0000F8603F2EF3CF232D2061E8CFEAE02E9E3F
:100C1000200D1124222EF32DF062F3CF8E3229F411
:100C200036FCDCC0232D2064D9CF8C3621F4832DF3
:100C30008068382EDBCF8836C9F2982F9F7D955477
:100C40009330D8F08336C9F18337E9F1833509F061
:100C500068C0280122E0420E511CF801C080D180FA
:100C600036FE45C0692D70E0C6010E948E074C011A
:100C7000F32DF0683F2E82010BC00C5F1F4F9FE3E6
:100C8000998388248394912C6501F32DFF773F2E5F
:100C900033FC05C0822D90E08816990658F1522C3D
:100CA0008114910471F5552009F45ECFB70180E2FB
:100CB00090E00E94A4075A94F6CFF80180818983BE
:100CC0000E5F1F4FDECF2801F2E04F0E511CF801DE
:100CD000C080D18036FE08C0692D70E0C6010E9438
:100CE00099074C018201D1CF6FEF7FEFF7CF6FEF04
:100CF0007FEFBACFB70180E290E00E94A4072A9468
:100D0000C9CFF60137FC859137FE81916F01B7019C
:100D100090E00E94A40751105A9421E0821A910891
:100D2000BFCF843611F08936C1F5F80137FE2CC0EB
:100D300060817181828193810C5F1F4FF32DFF765B
:100D40003F2E97FF09C090958095709561957F4FD4
:100D50008F4F9F4FF0683F2E2AE030E0A5010E94A0
:100D6000D407C82ECA1836FE62C0232D2E7F422E0D
:100D7000C91408F09BC034FE05C032FC03C0832DAB
:100D80008E7E482E892C55C060817181072E000C03
:100D9000880B990B0E5F1F4FD1CF8537B9F4232DE8
:100DA0002F7ED22E2AE030E0F801D7FE39C06081D4
:100DB0007181828193810C5F1F4FA5010E94D4072E
:100DC000C82ECA18FD2DFF773F2ECDCF932D997FCA
:100DD000D92E8F3611F148F48835B9F0F7018681A4
:100DE00097812B96E2E10C944E08803751F08837BA
:100DF000A9F7D4FE03C0FD2DF460DF2E20E130E022
:100E0000D3CFE92FE061DE2EF4CF34FE03C0292FCB
:100E10002660D22E20E132E0C7CF28E030E0C4CFF8
:100E20006081718180E090E00E5F1F4FC6CF8C2CF7
:100E3000432C44FE44C0FE01EC0DF11D8081803343
:100E4000B9F5942D997E492EE42DE8705E2E43FC71
:100E500044C040FE3EC0821408F044C02C0C922CCA
:100E6000981844FE44C0B70180E390E00E94A407B4
:100E700042FE07C041FC38C088E790E0B7010E94FD
:100E8000A407C91408F440C0CA94D12CFFEFCF1AAC
:100E9000DF0ACA0CDB1CF60182916F01B70190E0FA
:100EA0000E94A407AC14BD04B1F7FDCE8C2CC1CFB9
:100EB00042FC02C08394C8CF83948394C5CF842D11
:100EC000867811F2F7CFB70180E290E00E94A40784
:100ED00083948214C0F3512CC4CF8214E0F7522CB7
:100EE0005818BFCF9C2CBDCF88E590E0C7CF842D8C
:100EF000867839F241FE06C08BE247FC8DE2B701ED
:100F000090E0BDCF80E2F9CFB70180E390E00E948E
:100F1000A4079A94B6CF8FEF9FEF63CFFC010590A3
:100F2000615070400110D8F7809590958E0F9F1FEB
:100F30000895FC016150704001900110D8F7809530
:100F400090958E0F9F1F08950F931F93CF93DF935C
:100F5000182F092FEB018B8181FD09C01FEF0FEFC7
:100F6000812F902FDF91CF911F910F91089582FFD4
:100F700014C02E813F818C819D81281739073CF454
:100F8000E881F981CF0101969983888310838E814E
:100F90009F8101969F838E83E3CFE885F985812F1A
:100FA0000995892BA1F3DACFFA01AA27283051F14C
:100FB000203181F1E8946F936E7F6E5F7F4F8F4F8A
:100FC0009F4FAF4FB1E03ED0B4E03CD0670F781FE9
:100FD000891F9A1FA11D680F791F8A1F911DA11DCE
:100FE0006A0F711D811D911DA11D20D009F4689407
:100FF0003F912AE0269F11243019305D3193DEF6AF
:10100000CF010895462F4770405D4193B3E00FD064
:10101000C9F7F6CF462F4F70405D4A3318F0495D4F
:1010200031FD4052419302D0A9F7EACFB4E0A69532
:101030009795879577956795BA95C9F70097610554
:10104000710508959B01AC010A2E069457954795AA
:1010500037952795BA95C9F7620F731F841F951F9F
:10106000A01D08952F923F924F925F926F927F92B0
:101070008F929F92AF92BF92CF92DF92EF92FF92A8
:101080000F931F93CF93DF93CDB7DEB7CA1BDB0B54
:101090000FB6F894DEBF0FBECDBF09942A883988F9
:1010A00048885F846E847D848C849B84AA84B98400
:1010B000C884DF80EE80FD800C811B81AA81B9810C
:1010C000CE0FD11D0FB6F894DEBF0FBECDBFED0120
:0610D0000895F894FFCF23
:1010D6000000FB02200000000001000000000000EC
:1010E600710200000000000200000000B9020000CA
:1010F60000005461736B2031005461736B20320021
:101106002A2A2A2A2A2A2A2A2A2A2A2A2A2A2A2A39
:101116002A2A2A2A2A2A2A2A2A2A2A2A2A2A2A0053
:10112600496E69742069732061626F757420746FEB
:101136002072756E2E0053797374656D20696E6921
:101146007469616C697A65642E00437265617465C1
:1011560064207461736B732E0041626F7574207422
:101166006F2072756E207461736B732E00506173FD
:101176007365642072756E2E006465616420746FF9
:101186002075732E00496E73696465207461736BF4
:101196005F657869742E00496E7369646520696EAF
:1011A60069742E00496E697469616C697A696E6743
:1011B6002073797374656D20646174612073747231
:1011C6007563742E004372656174696E6720616E83
:1011D600642073746F72696E672073797374656DBA
:1011E60020737461636B20706F696E74657220760C
:1011F600616C75652E2E2E0025640A005375636397
:101206006573732100496E73696465207461736B3D
:101216005F6372656174652100496E736964652058
:1012260072756E21005F675F7379732E63757272D4
:10123600656E743A200041626F757420746F207376
:1012460061766520636F6E74657874005265737499
:101256006F72652053500041626F757420746F2061
:101266006A756D7020746F2066697273742074617C
:08127600736B2E00504F500075
:00000001FF
