:100000000C9434000C9451000C9451000C94510049
:100010000C9451000C9451000C9451000C9451001C
:100020000C9451000C9451000C9451000C9451000C
:100030000C9451000C9451000C9451000C945100FC
:100040000C9451000C9451000C9463010C945100D9
:100050000C9451000C9451000C9451000C945100DC
:100060000C9451000C94510011241FBECFEFD8E026
:10007000DEBFCDBF12E0A0E0B1E0E4E8F0E102C0F5
:1000800005900D92A03BB107D9F723E0A0EBB2E0B9
:1000900001C01D92A330B207E1F70E9426010C9423
:1000A00040080C94000082E291E00C944D0589E236
:1000B00091E00C944D05C201F10109950E94600088
:1000C00085EB91E00C944D05CF93DF9387EC91E0A5
:1000D0000E944D0584ED91E00E944D05C4EFD2E0F1
:1000E00085E0FE0111928A95E9F785EF91E00E9483
:1000F0004D058DB79EB79983888388E292E0DF91A2
:10010000CF910C944D05CF92DF92EF92FF920F9317
:100110001F93CF93DF937C01EB0181E392E00E9478
:100120004D056E018BE3C80ED11CC6010E940C0464
:100130008C01A60160E070E00E943005C8010F96B6
:10014000D8011C969C938E931B97CE018C961A9681
:100150009C938E9319971796EC9217971896FC928A
:100160001897FE013F96E00FF11F1596FC93EE9352
:100170001497E382F4828FB781A38BE590E092A37A
:1001800083A316968C911697807F16968C93C80140
:10019000DF91CF911F910F91FF90EF90DF90CF9063
:1001A0000895CF93DF9385E492E00E944D05C4EF5C
:1001B000D2E08A819B819F938F9381E592E09F9308
:1001C0008F930E943705EA81FB81848195819EBFD0
:1001D0008DBF85E692E00E944D050F901F902F90F5
:1001E0003F904F905F906F907F908F909F90AF90D7
:1001F000BF90CF90DF90EF90FF900F911F912F91C4
:100200003F914F915F916F917F918F919F91AF91AE
:10021000BF91CF91DF91EF91FF91FFBFFF9187E8F1
:1002200092E00E944D0583E992E00E944D050895F9
:100230000F900F900F900F90DF91CF910895FC01D8
:100240009681907F6F70692B6683089580E391E0BB
:100250000E944D0560E875E280E090E00E94A902EE
:1002600081E090E00E94A1010E949E020E94AF01E5
:1002700080E591E00E944D050E94640086E691E0D1
:100280000E944D0560E270E083E590E00E948300EB
:100290009093B1028093B00260E270E087E590E055
:1002A0000E9483008AE791E00E944D0589E891E071
:1002B0000E944D050E94D1008DE991E00E944D05FC
:1002C00089EA91E0FBCF1F920F920FB60F92112493
:1002D0008F939F93EF93FF93CF93DF9300D01F9261
:1002E000CDB7DEB78091C00084FD27C08091C600E5
:1002F0008B838091B20290E001968F7399278A8355
:100300009091B3028A81981751F0E091B202F0E027
:100310008B81EE54FD4F82838A818093B2020F90CD
:100320000F900F90DF91CF91FF91EF919F918F915F
:100330000F900FBE0F901F9018958091C600898373
:10034000EECF9091C1009F7B9093C10080FF05C0CC
:100350008091C10080688093C10078940895EDEF8A
:10036000F2E084E191E09383828386E091E09183DF
:1003700080830895E2EBF2E08081218190E0805C4F
:100380009F4F821B910960E470E00E94C2030895B0
:100390001F93CF93DF93182FD92FC62F0E94BA0136
:1003A000982FC81708F49C2FA12FBD2F80E0891328
:1003B00004C0DF91CF911F910895E091B302E80F3F
:1003C000EF73F0E0EE54FD4F22812D938F5FEFCF5E
:1003D000BF92CF92DF92EF92FF920F931F93CF9332
:1003E000DF937C016B01B42E411135C09091B202B4
:1003F0008091B302C0E0D0E0981711F1CC15DD0573
:10040000F8F487010C0F1D1F12C0E091B302F0E059
:10041000EE54FD4F8281F80181938F018091B302E8
:1004200090E001968F7399278093B30221960E94E2
:10043000BA01882319F0CC15DD0539F7B110DECFEC
:10044000CE01DF91CF911F910F91FF90EF90DF9040
:10045000CF90BF900895C0E0D0E0D0CF3091B202ED
:100460002091B302321791F0E091B302F0E0EE5424
:10047000FD4F2281FC0120838091B30290E0019620
:100480008F7399278093B30281E0089580E00895E7
:10049000CF93DF931F92CDB7DEB71982CE010196BD
:1004A0000E942E028823D1F38981082E000C990B1B
:1004B0000F90DF91CF910895FC01860F971FE817E9
:1004C000F90711F4862F08952091C00027FFFCCF73
:1004D0002091C6002193F3CF61E070E00C945C02A0
:1004E000FC0180E090E08617970709F408952091B9
:1004F000C00025FFFCCF019621912093C600F3CFC9
:10050000CF93DF931F92CDB7DEB7898361E070E0B0
:10051000CE0101960E9470020F90DF91CF91089555
:10052000CF93C82F8A3019F48DE00E9490028C2F4F
:100530000E94800280E090E0CF9108951092B20274
:100540001092B3028091C00087FF08958091C60089
:10055000F9CFCF92DF92EF92FF926B017C018091F5
:1005600064008D7F809364001092C000C11486E9FE
:10057000D806E104F10409F4D9C008F05FC080E8AE
:10058000C81685E2D806E104F10409F49DC0E8F537
:1005900080E6C81689E0D806E104F10409F4BBC07E
:1005A00080ECC81682E1D806E104F10409F4E2C047
:1005B0008091C00082608093C00060E079E08DE3AC
:1005C00090E0A70196010E94D6032150310941090C
:1005D00051095695479537952795211580E138079C
:1005E00008F474C01092C00060E874E88EE190E0F6
:1005F000A70196010E94D6032150310941095109F2
:10060000569547953795279561C0C1148BE4D80658
:10061000E104F10409F487C080E8C81680E7D80631
:10062000E104F10481F180E4C81688E3D806E1040E
:10063000F10409F0BDCF24E430E048C0C11484E8DF
:10064000D80683E0E806F10409F47EC0F8F4C1148A
:100650008CE2D80681E0E806F10409F46AC0C1140E
:1006600082ECD80681E0E806F10409F465C0C11403
:1006700081EED806E104F10409F09ACF8091C00020
:1006800082608093C00022E230E020C080E2C81681
:1006900081EAD80687E0E806F10409F45DC080E449
:1006A000C81682E4D8068FE0E806F10409F45AC0BF
:1006B00080E9C81680EDD80683E0E806F10409F069
:1006C00077CF23E030E002C027E630E03093C5006A
:1006D0002093C4002091B20283E490E0019709F0D6
:1006E0004CC02093B2028091C20086608093C20009
:1006F0008091C10080618093C1008091C1008860B9
:100700008093C1000E949E0280E090E0FF90EF90F5
:10071000DF90CF9008958091C00082608093C000E8
:1007200020E433E0D3CF23E330E0D0CF29E130E041
:10073000CDCF2CE030E0CACF8091C00082608093A2
:10074000C00020E130E0C2CF8091C0008260809381
:10075000C00028E030E0BACF8091C0008260809372
:10076000C000AFCF8091C00082608093C00021E0C4
:1007700030E0ACCF2FEC30E0A9CF20E0AFCF82EB60
:1007800092E0089597FB072E16F4009407D077FDAA
:1007900009D00E94F80307FC05D03EF4909581959E
:1007A0009F4F0895709561957F4F0895A1E21A2E8D
:1007B000AA1BBB1BFD010DC0AA1FBB1FEE1FFF1F05
:1007C000A217B307E407F50720F0A21BB30BE40B55
:1007D000F50B661F771F881F991F1A9469F760959C
:1007E0007095809590959B01AC01BD01CF01089556
:1007F000AA1BBB1B51E107C0AA1FBB1FA617B70747
:1008000010F0A61BB70B881F991F5A95A9F7809562
:100810009095BC01CD0108950F931F93CF93DF9363
:100820008230910510F482E090E0E091FB02F091BB
:10083000FC0220E030E0A0E0B0E0309799F4211510
:10084000310509F447C0281B390B24303105C0F5A8
:100850008A819B816115710571F1FB01938382830C
:10086000FE0111C04081518102811381481759074F
:10087000F8F04817590799F4109761F012960C9305
:10088000129713961C933296CF01DF91CF911F914F
:100890000F9108950093FB021093FC02F4CF2115F1
:1008A000310519F04217530718F49A01BD01EF0101
:1008B000DF01F801C2CF9093FC028093FB02D0CFFE
:1008C000FE01E20FF31F8193919322503109398386
:1008D0002883DACF2091F9023091FA02232B41F4D8
:1008E00020910201309103013093FA022093F90222
:1008F00020910001309101012115310541F42DB7FE
:100900003EB74091040150910501241B350BE09145
:10091000F902F091FA02E217F307A0F42E1B3F0B45
:100920002817390778F0AC014E5F5F4F2417350761
:1009300048F04E0F5F1F5093FA024093F9028193E3
:100940009193A2CFE0E0F0E09FCFCF93DF930097A9
:10095000D1F0FC01329713821282A091FB02B09178
:10096000FC02109799F420813181820F931F20910E
:10097000F9023091FA022817390709F066C0F0939E
:10098000FA02E093F902DF91CF910895ED0120E0A2
:1009900030E0CE17DF0708F03FC04A815B819E013F
:1009A00041155105B9F5E901FB83EA834991599154
:1009B000C40FD51FEC17FD0761F480819181029669
:1009C000840F951FE90199838883828193819B839A
:1009D0008A83E0E0F0E012968D919C911397009746
:1009E000C9F52D913C911197CD010296820F931F6D
:1009F0002091F9023091FA022817390721F6309731
:100A000061F51092FC021092FB02B093FA02A093DF
:100A1000F902B9CFEA01BDCFD383C28340815181AE
:100A2000840F951FC817D90761F44E5F5F4F888107
:100A30009981480F591F518340838A819B819383F9
:100A400082832115310509F0AECFF093FC02E093CB
:100A5000FB0299CFFD01DC01BECF13821282D5CFFC
:100A6000DC0101C06D9341505040E0F70895A0E0D3
:100A7000B0E0EDE3F5E00C941908AE014B5F5F4F79
:100A8000FA0161917191AF018091FF029091000391
:100A90000E947905E2E00C9435080F931F93CF93E1
:100AA000DF93E091FF02F0910003238121FF13C047
:100AB000EC0100E010E089916091FF027091000369
:100AC000DB011896ED91FC91199781110CC08AE019
:100AD0000995892B11F00FEF1FEFC801DF91CF911E
:100AE0001F910F9108950995892B29F30FEF1FEF9F
:100AF000E2CFABE0B0E0EFE7F5E00C9409087C0151
:100B00003B018A01FC0117821682838181FFDAC1D1
:100B1000CE0101965C01F7019381F30193FD85916C
:100B200093FF81913F01882309F42FC1853239F465
:100B300093FD859193FF81913F01853229F4B7019F
:100B400090E00E947B07E7CF912C212C312CFFE114
:100B5000F31538F08B32D9F090F48032D9F083322B
:100B600049F137FC41C020ED280F2A3070F536FEE0
:100B700024C08AE0989E200D1124922E0EC08D3242
:100B8000A9F0803371F7232D2160322E06C0832D0A
:100B90008260382EE32DE4603E2EF30193FD8591B3
:100BA00093FF81913F018111D2CF1EC0F32DF860D8
:100BB0003F2EF3CF232D2061E8CFEAE02E9E200DBB
:100BC0001124222EF32DF062F3CF8E3229F436FC5D
:100BD000DCC0232D2064D9CF8C3621F4832D80688E
:100BE000382EDBCF8836C9F2982F9F7D95549330ED
:100BF000D8F08336C9F18337E9F1833509F068C04D
:100C0000280122E0420E511CF801C080D18036FE3E
:100C100045C0692D70E0C6010E9465074C01F32DA7
:100C2000F0683F2E82010BC00C5F1F4F9FE399833A
:100C300088248394912C6501F32DFF773F2E33FC9C
:100C400005C0822D90E08816990658F1522C811427
:100C5000910471F5552009F45ECFB70180E290E070
:100C60000E947B075A94F6CFF801808189830E5F3A
:100C70001F4FDECF2801F2E04F0E511CF801C0805B
:100C8000D18036FE08C0692D70E0C6010E94700751
:100C90004C018201D1CF6FEF7FEFF7CF6FEF7FEF86
:100CA000BACFB70180E290E00E947B072A94C9CFB7
:100CB000F60137FC859137FE81916F01B70190E015
:100CC0000E947B0751105A9421E0821A9108BFCFED
:100CD000843611F08936C1F5F80137FE2CC06081E9
:100CE0007181828193810C5F1F4FF32DFF763F2E20
:100CF00097FF09C090958095709561957F4F8F4FB4
:100D00009F4FF0683F2E2AE030E0A5010E94AB071C
:100D1000C82ECA1836FE62C0232D2E7F422EC9145B
:100D200008F09BC034FE05C032FC03C0832D8E7ECC
:100D3000482E892C55C060817181072E000C880BCC
:100D4000990B0E5F1F4FD1CF8537B9F4232D2F7E1E
:100D5000D22E2AE030E0F801D7FE39C060817181DF
:100D6000828193810C5F1F4FA5010E94AB07C82EA3
:100D7000CA18FD2DFF773F2ECDCF932D997FD92E09
:100D80008F3611F148F48835B9F0F70186819781E3
:100D90002B96E2E10C942508803751F08837A9F7AB
:100DA000D4FE03C0FD2DF460DF2E20E130E0D3CF70
:100DB000E92FE061DE2EF4CF34FE03C0292F266038
:100DC000D22E20E132E0C7CF28E030E0C4CF6081EE
:100DD000718180E090E00E5F1F4FC6CF8C2C432CBA
:100DE00044FE44C0FE01EC0DF11D80818033B9F555
:100DF000942D997E492EE42DE8705E2E43FC44C06C
:100E000040FE3EC0821408F044C02C0C922C98186E
:100E100044FE44C0B70180E390E00E947B0742FE9D
:100E200007C041FC38C088E790E0B7010E947B070B
:100E3000C91408F440C0CA94D12CFFEFCF1ADF0ABE
:100E4000CA0CDB1CF60182916F01B70190E00E9491
:100E50007B07AC14BD04B1F7FDCE8C2CC1CF42FC96
:100E600002C08394C8CF83948394C5CF842D8678A1
:100E700011F2F7CFB70180E290E00E947B078394E4
:100E80008214C0F3512CC4CF8214E0F7522C5818AE
:100E9000BFCF9C2CBDCF88E590E0C7CF842D86784E
:100EA00039F241FE06C08BE247FC8DE2B70190E0CB
:100EB000BDCF80E2F9CFB70180E390E00E947B07CD
:100EC0009A94B6CF8FEF9FEF63CFFC0105906150EE
:100ED00070400110D8F7809590958E0F9F1F089550
:100EE000FC016150704001900110D8F780959095F9
:100EF0008E0F9F1F08950F931F93CF93DF93182F8B
:100F0000092FEB018B8181FD09C01FEF0FEF812FAE
:100F1000902FDF91CF911F910F91089582FF14C000
:100F20002E813F818C819D81281739073CF4E8810F
:100F3000F981CF0101969983888310838E819F81E7
:100F400001969F838E83E3CFE885F985812F0995EC
:100F5000892BA1F3DACFFA01AA27283051F12031E9
:100F600081F1E8946F936E7F6E5F7F4F8F4F9F4F3D
:100F7000AF4FB1E03ED0B4E03CD0670F781F891F7F
:100F80009A1FA11D680F791F8A1F911DA11D6A0F4D
:100F9000711D811D911DA11D20D009F468943F9100
:100FA0002AE0269F11243019305D3193DEF6CF01FF
:100FB0000895462F4770405D4193B3E00FD0C9F7C5
:100FC000F6CF462F4F70405D4A3318F0495D31FD32
:100FD0004052419302D0A9F7EACFB4E0A695979585
:100FE000879577956795BA95C9F70097610571055B
:100FF00008959B01AC010A2E0694579547953795A5
:101000002795BA95C9F7620F731F841F951FA01DFE
:1010100008952F923F924F925F926F927F928F929C
:101020009F92AF92BF92CF92DF92EF92FF920F9377
:101030001F93CF93DF93CDB7DEB7CA1BDB0B0FB681
:10104000F894DEBF0FBECDBF09942A88398848883E
:101050005F846E847D848C849B84AA84B984C884D4
:10106000DF80EE80FD800C811B81AA81B981CE0FCB
:10107000D11D0FB6F894DEBF0FBECDBFED010895B0
:04108000F894FFCF12
:101084000000030320000000000100000000000035
:10109400480200000000000200000000900200006E
:1010A40000005461736B2031005461736B20320073
:1010B4002A2A2A2A2A2A2A2A2A2A2A2A2A2A2A2A8C
:1010C4002A2A2A2A2A2A2A2A2A2A2A2A2A2A2A00A6
:1010D400496E69742069732061626F757420746F3E
:1010E4002072756E2E0053797374656D20696E6974
:1010F4007469616C697A65642E0043726561746514
:1011040064207461736B732E0041626F7574207474
:101114006F2072756E207461736B732E005061734F
:101124007365642072756E2E006465616420746F4B
:101134002075732E00496E73696465207461736B46
:101144005F657869742E00496E7369646520696E01
:1011540069742E00496E697469616C697A696E6795
:101164002073797374656D20646174612073747283
:101174007563742E004372656174696E6720616ED5
:10118400642073746F72696E672073797374656D0C
:1011940020737461636B20706F696E74657220765E
:1011A400616C75652E2E2E00537563636573732110
:1011B40000496E73696465207461736B5F63726563
:1011C4006174652100496E736964652072756E21CE
:1011D400005F675F7379732E63757272656E743A1C
:1011E4002025730A0053657420737020746F206384
:1011F400757272656E74207461736B277320636FEC
:101204006E746578742E00526573746F7265207302
:10121400702E0041626F757420746F206A756D7052
:1012240020746F206669727374207461736B2E006E
:00000001FF
