:100000000C9434000C9451000C9451000C94510049
:100010000C9451000C9451000C9451000C9451001C
:100020000C9451000C9451000C9451000C9451000C
:100030000C9451000C9451000C9451000C945100FC
:100040000C9451000C9451000C94DE010C9451005E
:100050000C9451000C9451000C9451000C945100DC
:100060000C9451000C94510011241FBECFEFD8E026
:10007000DEBFCDBF13E0A0E0B1E0EAE7F1E102C0EE
:1000800005900D92A033B107D9F723E0A0E3B3E0C8
:1000900001C01D92AA38B207E1F70E94A5010C9495
:1000A000BB080C94000060E875E280E090E00E94DC
:1000B000240381E090E00E941C020E9419030E9428
:1000C0002A0282E291E00E94C8058FE291E0FBCF14
:1000D00086E391E00E94C805FBCFFFCF82EC91E060
:1000E0000E94C805C201F1018CED91E00E94C80593
:1000F000099580EF91E00E94C8050E947F008DEF76
:1001000091E00E94C805FFCF8EE092E00E94C805F2
:100110008AE192E00E94C805FF93FFB7FF93EF9337
:10012000DF93CF93BF93AF939F938F937F936F93FF
:100130005F934F933F932F931F930F93FF92EF92F1
:10014000DF92CF92BF92AF929F928F927F926F92E7
:100150005F924F923F922F921F9211240F92E09143
:100160007603F0917703848195819EBF8DBF8BE2EA
:1001700092E00E94C80581E492E00E94C8050F90B9
:100180001F902F903F904F905F906F907F908F9037
:100190009F90AF90BF90CF90DF90EF90FF900F9126
:1001A0001F912F913F914F915F916F917F918F910F
:1001B0009F91AF91BF91CF91DF91EF91FF91FFBFE1
:1001C000FF918CE492E00E94C805089589E692E0D0
:1001D0000C94C8050F931F93CF938C01C62F8DE607
:1001E00092E00E94C805F8016681607FCF706C2B99
:1001F0006683CF911F910F910895CF92DF92EF9276
:10020000FF920F931F93CF93DF936C01EB0188E86C
:1002100092E00E94C8057E018CE3E80EF11CFF927B
:10022000EF928CE992E09F938F930E94B205C701F1
:100230000E9487048C01A70160E070E00E94AB057A
:10024000C8014096D8011D969C938E931C97CE01B1
:100250008C961B969C938E931A979F938F938AEA02
:1002600092E09F938F930E94B205F801C086D186D9
:10027000FE017096E00FF11FD8011596FC93EE93E6
:100280001497C382D4828FB781A38EE690E092A3A5
:1002900083A360E0C8010E94EA00EDB7FEB738967C
:1002A0000FB6F894FEBF0FBEEDBFC801DF91CF912E
:1002B0001F910F91FF90EF90DF90CF900895CF9313
:1002C000DF9387EB92E00E94C80584EC92E00E94E5
:1002D000C805C4E7D3E08CE0FE0111928A95E9F7E6
:1002E00085EE92E00E94C8058DB79EB799838883FA
:1002F00060E270E08DE690E00E94FD009B838A83BF
:100300008A819B819D838C838A819B8162E00E948C
:10031000EA008B858C7F8B878B8581608B87E8815A
:10032000F98182A193A19F938F9383EB92E09F9396
:100330008F930E94B2050F900F900F900F9088E15D
:1003400093E0DF91CF910C94C80560E875E280E0FE
:1003500090E00E94240381E090E00E941C020E9431
:1003600019030E942A028DE391E00E94C8058DE5E1
:1003700091E00E94C8050E945F0183E791E00E941E
:10038000C80560E270E083E590E00E94FD0060E255
:1003900070E088E690E00E94FD0087E891E00E940E
:1003A000C80586E991E00E94C8050E9484008AEA97
:1003B00091E00E94C80586EB91E0FBCF1F920F925F
:1003C0000FB60F9211248F939F93EF93FF93CF93C8
:1003D000DF9300D01F92CDB7DEB78091C00084FDBF
:1003E00027C08091C6008B838091320390E00196F4
:1003F0008F7399278A83909133038A81981751F0DC
:10040000E0913203F0E08B81EE5CFC4F82838A81C5
:10041000809332030F900F900F90DF91CF91FF9157
:10042000EF919F918F910F900FBE0F901F90189595
:100430008091C6008983EECF9091C1009F7B9093FD
:10044000C10080FF05C08091C10080688093C10019
:1004500078940895E4E8F3E084E191E09383828363
:1004600086E091E0918380830895E2E3F3E0808168
:10047000218190E0805C9F4F821B910960E470E0D5
:100480000E943D0408951F93CF93DF93182FD92F17
:10049000C62F0E943502982FC81708F49C2FA12F51
:1004A000BD2F80E0891304C0DF91CF911F91089583
:1004B000E0913303E80FEF73F0E0EE5CFC4F228134
:1004C0002D938F5FEFCFBF92CF92DF92EF92FF928B
:1004D0000F931F93CF93DF937C016B01B42E4111D7
:1004E00035C09091320380913303C0E0D0E098177B
:1004F00011F1CC15DD05F8F487010C0F1D1F12C09A
:10050000E0913303F0E0EE5CFC4F8281F8018193CF
:100510008F018091330390E001968F739927809328
:10052000330321960E943502882319F0CC15DD058E
:1005300039F7B110DECFCE01DF91CF911F910F912E
:10054000FF90EF90DF90CF90BF900895C0E0D0E093
:10055000D0CF3091320320913303321791F0E091E4
:100560003303F0E0EE5CFC4F2281FC01208380919C
:10057000330390E001968F7399278093330381E0D2
:10058000089580E00895CF93DF931F92CDB7DEB733
:100590001982CE0101960E94A9028823D1F3898194
:1005A000082E000C990B0F90DF91CF910895FC015C
:1005B000860F971FE817F90711F4862F08952091E9
:1005C000C00027FFFCCF2091C6002193F3CF61E04C
:1005D00070E00C94D702FC0180E090E0861797074A
:1005E00009F408952091C00025FFFCCF01962191C8
:1005F0002093C600F3CFCF93DF931F92CDB7DEB722
:10060000898361E070E0CE0101960E94EB020F90B9
:10061000DF91CF910895CF93C82F8A3019F48DE0E0
:100620000E940B038C2F0E94FB0280E090E0CF9190
:10063000089510923203109233038091C00087FF17
:1006400008958091C600F9CFCF92DF92EF92FF928A
:100650006B017C01809164008D7F80936400109217
:10066000C000C11486E9D806E104F10409F4D9C038
:1006700008F05FC080E8C81685E2D806E104F104FE
:1006800009F49DC0E8F580E6C81689E0D806E104C3
:10069000F10409F4BBC080ECC81682E1D806E1047D
:1006A000F10409F4E2C08091C00082608093C00030
:1006B00060E079E08DE390E0A70196010E9451048B
:1006C000215031094109510956954795379527958C
:1006D000211580E1380708F474C01092C00060E86A
:1006E00074E88EE190E0A70196010E945104215028
:1006F000310941095109569547953795279561C0AC
:10070000C1148BE4D806E104F10409F487C080E841
:10071000C81680E7D806E104F10481F180E4C81628
:1007200088E3D806E104F10409F0BDCF24E430E009
:1007300048C0C11484E8D80683E0E806F10409F44F
:100740007EC0F8F4C1148CE2D80681E0E806F1041A
:1007500009F46AC0C11482ECD80681E0E806F1040D
:1007600009F465C0C11481EED806E104F10409F072
:100770009ACF8091C00082608093C00022E230E076
:1007800020C080E2C81681EAD80687E0E806F104B6
:1007900009F45DC080E4C81682E4D8068FE0E8065C
:1007A000F10409F45AC080E9C81680EDD80683E048
:1007B000E806F10409F077CF23E030E002C027E635
:1007C00030E03093C5002093C4002091320383E4CD
:1007D00090E0019709F04CC0209332038091C20051
:1007E00086608093C2008091C10080618093C100C7
:1007F0008091C10088608093C1000E94190380E04D
:1008000090E0FF90EF90DF90CF9008958091C0002E
:1008100082608093C00020E433E0D3CF23E330E054
:10082000D0CF29E130E0CDCF2CE030E0CACF8091AD
:10083000C00082608093C00020E130E0C2CF809190
:10084000C00082608093C00028E030E0BACF809181
:10085000C00082608093C000AFCF8091C0008260F2
:100860008093C00021E030E0ACCF2FEC30E0A9CF86
:1008700020E0AFCF82E393E0089597FB072E16F4B4
:10088000009407D077FD09D00E94730407FC05D0BF
:100890003EF4909581959F4F0895709561957F4F97
:1008A0000895A1E21A2EAA1BBB1BFD010DC0AA1FB1
:1008B000BB1FEE1FFF1FA217B307E407F50720F0C9
:1008C000A21BB30BE40BF50B661F771F881F991F44
:1008D0001A9469F760957095809590959B01AC018D
:1008E000BD01CF010895AA1BBB1B51E107C0AA1F80
:1008F000BB1FA617B70710F0A61BB70B881F991FC1
:100900005A95A9F780959095BC01CD0108950F9354
:100910001F93CF93DF938230910510F482E090E033
:10092000E0918203F091830320E030E0A0E0B0E0AA
:10093000309799F42115310509F447C0281B390B6C
:1009400024303105C0F58A819B816115710571F1F3
:10095000FB0193838283FE0111C04081518102819A
:10096000138148175907F8F04817590799F4109759
:1009700061F012960C93129713961C933296CF0146
:10098000DF91CF911F910F910895009382031093EF
:100990008303F4CF2115310519F04217530718F4DA
:1009A0009A01BD01EF01DF01F801C2CF90938303EB
:1009B00080938203D0CFFE01E20FF31F81939193C6
:1009C0002250310939832883DACF20918003309176
:1009D0008103232B41F420910201309103013093D4
:1009E00081032093800320910001309101012115A2
:1009F000310541F42DB73EB74091040150910501F6
:100A0000241B350BE0918003F0918103E217F3077B
:100A1000A0F42E1B3F0B2817390778F0AC014E5F6E
:100A20005F4F2417350748F04E0F5F1F5093810327
:100A30004093800381939193A2CFE0E0F0E09FCFB9
:100A4000CF93DF930097D1F0FC013297138212828B
:100A5000A0918203B0918303109799F42081318192
:100A6000820F931F2091800330918103281739074B
:100A700009F066C0F0938103E0938003DF91CF918A
:100A80000895ED0120E030E0CE17DF0708F03FC009
:100A90004A815B819E0141155105B9F5E901FB834E
:100AA000EA8349915991C40FD51FEC17FD0761F4F2
:100AB000808191810296840F951FE9019983888333
:100AC000828193819B838A83E0E0F0E012968D918E
:100AD0009C9113970097C9F52D913C911197CD01E9
:100AE0000296820F931F2091800330918103281773
:100AF000390721F6309761F5109283031092820333
:100B0000B0938103A0938003B9CFEA01BDCFD38313
:100B1000C28340815181840F951FC817D90761F4A2
:100B20004E5F5F4F88819981480F591F51834083E1
:100B30008A819B81938382832115310509F0AECF91
:100B4000F0938303E093820399CFFD01DC01BECFD4
:100B500013821282D5CFDC0101C06D934150504009
:100B6000E0F70895A0E0B0E0E8EBF5E00C9494081D
:100B7000AE014B5F5F4FFA0161917191AF018091BE
:100B80008603909187030E94F405E2E00C94B0087C
:100B90000F931F93CF93DF93E0918603F091870328
:100BA000238121FF13C0EC0100E010E089916091E6
:100BB000860370918703DB011896ED91FC911997DC
:100BC00081110CC08AE00995892B11F00FEF1FEFFE
:100BD000C801DF91CF911F910F9108950995892B3D
:100BE00029F30FEF1FEFE2CFABE0B0E0EAEFF5E063
:100BF0000C9484087C013B018A01FC011782168257
:100C0000838181FFDAC1CE0101965C01F7019381F6
:100C1000F30193FD859193FF81913F01882309F4AE
:100C20002FC1853239F493FD859193FF81913F0166
:100C3000853229F4B70190E00E94F607E7CF912CA6
:100C4000212C312CFFE1F31538F08B32D9F090F4E0
:100C50008032D9F0833249F137FC41C020ED280FB2
:100C60002A3070F536FE24C08AE0989E200D1124AB
:100C7000922E0EC08D32A9F0803371F7232D2160A2
:100C8000322E06C0832D8260382EE32DE4603E2E86
:100C9000F30193FD859193FF81913F018111D2CFA3
:100CA0001EC0F32DF8603F2EF3CF232D2061E8CF37
:100CB000EAE02E9E200D1124222EF32DF062F3CFB8
:100CC0008E3229F436FCDCC0232D2064D9CF8C363B
:100CD00021F4832D8068382EDBCF8836C9F2982F17
:100CE0009F7D95549330D8F08336C9F18337E9F16D
:100CF000833509F068C0280122E0420E511CF8013A
:100D0000C080D18036FE45C0692D70E0C6010E94CA
:100D1000E0074C01F32DF0683F2E82010BC00C5F01
:100D20001F4F9FE3998388248394912C6501F32DB1
:100D3000FF773F2E33FC05C0822D90E08816990680
:100D400058F1522C8114910471F5552009F45ECFAD
:100D5000B70180E290E00E94F6075A94F6CFF801BE
:100D6000808189830E5F1F4FDECF2801F2E04F0E96
:100D7000511CF801C080D18036FE08C0692D70E09A
:100D8000C6010E94EB074C018201D1CF6FEF7FEFCC
:100D9000F7CF6FEF7FEFBACFB70180E290E00E940C
:100DA000F6072A94C9CFF60137FC859137FE819169
:100DB0006F01B70190E00E94F60751105A9421E0AC
:100DC000821A9108BFCF843611F08936C1F5F80137
:100DD00037FE2CC060817181828193810C5F1F4F2F
:100DE000F32DFF763F2E97FF09C090958095709563
:100DF00061957F4F8F4F9F4FF0683F2E2AE030E084
:100E0000A5010E942608C82ECA1836FE62C0232DEE
:100E10002E7F422EC91408F09BC034FE05C032FC60
:100E200003C0832D8E7E482E892C55C06081718130
:100E3000072E000C880B990B0E5F1F4FD1CF853703
:100E4000B9F4232D2F7ED22E2AE030E0F801D7FE10
:100E500039C060817181828193810C5F1F4FA50130
:100E60000E942608C82ECA18FD2DFF773F2ECDCF31
:100E7000932D997FD92E8F3611F148F48835B9F02A
:100E8000F701868197812B96E2E10C94A0088037C8
:100E900051F08837A9F7D4FE03C0FD2DF460DF2E92
:100EA00020E130E0D3CFE92FE061DE2EF4CF34FE35
:100EB00003C0292F2660D22E20E132E0C7CF28E0E0
:100EC00030E0C4CF6081718180E090E00E5F1F4F01
:100ED000C6CF8C2C432C44FE44C0FE01EC0DF11D0A
:100EE00080818033B9F5942D997E492EE42DE870E8
:100EF0005E2E43FC44C040FE3EC0821408F044C055
:100F00002C0C922C981844FE44C0B70180E390E06A
:100F10000E94F60742FE07C041FC38C088E790E017
:100F2000B7010E94F607C91408F440C0CA94D12C36
:100F3000FFEFCF1ADF0ACA0CDB1CF60182916F01AA
:100F4000B70190E00E94F607AC14BD04B1F7FDCEE6
:100F50008C2CC1CF42FC02C08394C8CF839483946D
:100F6000C5CF842D867811F2F7CFB70180E290E0EB
:100F70000E94F60783948214C0F3512CC4CF8214CC
:100F8000E0F7522C5818BFCF9C2CBDCF88E590E0DD
:100F9000C7CF842D867839F241FE06C08BE247FC2C
:100FA0008DE2B70190E0BDCF80E2F9CFB70180E3D9
:100FB00090E00E94F6079A94B6CF8FEF9FEF63CF31
:100FC000FC010590615070400110D8F78095909514
:100FD0008E0F9F1F0895FC01615070400190011019
:100FE000D8F7809590958E0F9F1F08950F931F93AC
:100FF000CF93DF93182F092FEB018B8181FD09C05F
:101000001FEF0FEF812F902FDF91CF911F910F9145
:10101000089582FF14C02E813F818C819D81281705
:1010200039073CF4E881F981CF01019699838883DF
:1010300010838E819F8101969F838E83E3CFE88505
:10104000F985812F0995892BA1F3DACFFA01AA2717
:10105000283051F1203181F1E8946F936E7F6E5FFB
:101060007F4F8F4F9F4FAF4FB1E03ED0B4E03CD0A9
:10107000670F781F891F9A1FA11D680F791F8A1F8C
:10108000911DA11D6A0F711D811D911DA11D20D0F3
:1010900009F468943F912AE0269F11243019305DAD
:1010A0003193DEF6CF010895462F4770405D41939E
:1010B000B3E00FD0C9F7F6CF462F4F70405D4A33EB
:1010C00018F0495D31FD4052419302D0A9F7EACFB3
:1010D000B4E0A6959795879577956795BA95C9F7E2
:1010E00000976105710508959B01AC010A2E0694D5
:1010F0005795479537952795BA95C9F7620F731F8E
:10110000841F951FA01D08952F923F924F925F92CA
:101110006F927F928F929F92AF92BF92CF92DF9207
:10112000EF92FF920F931F93CF93DF93CDB7DEB76C
:10113000CA1BDB0B0FB6F894DEBF0FBECDBF099400
:101140002A88398848885F846E847D848C849B8457
:10115000AA84B984C884DF80EE80FD800C811B8165
:10116000AA81B981CE0FD11D0FB6F894DEBF0FBE94
:0A117000CDBFED010895F894FFCF04
:10117A0000008A03200000000001000000000000B7
:10118A00C302000000000002000000000B03000080
:10119A00000048454545454C4C4C4C4C4C4C005481
:1011AA0061736B2031005461736B2032002A2A2A42
:1011BA002A2A2A2A2A2A2A2A2A2A2A2A2A2A2A2A85
:1011CA002A2A2A2A2A2A2A2A2A2A2A2A00496E69FD
:1011DA00742069732061626F757420746F20727550
:1011EA006E2E0053797374656D20696E6974696136
:1011FA006C697A65642E0043726561746564207453
:10120A0061736B732E0041626F757420746F207264
:10121A00756E207461736B732E005061737365640D
:10122A002072756E2E006465616420746F20757378
:10123A002E00496E7369646520616F73207461734F
:10124A006B206C61756E636865722E0072696768DF
:10125A0074206265666F7265206963616C6C2E002A
:10126A006166746572206963616C6C2E00496E73E5
:10127A00696465207461736B206578697400496ECE
:10128A00736964652072756E21005F675F73797395
:10129A002E63757272656E743A200041626F7574BE
:1012AA0020746F207361766520636F6E746578743D
:1012BA0000526573746F72652053500041626F75F6
:1012CA007420746F206A756D7020746F206669725D
:1012DA007374207461736B2E00504F5000496E7303
:1012EA0069646520616F73207461736B2073746124
:1012FA007465207365742E00496E73696465207481
:10130A0061736B5F6372656174652100626C6B5F08
:10131A0073697A653A2025640A0077615F73697A8E
:10132A00653A2025640A00496E7369646520696E0E
:10133A0069742E00496E697469616C697A696E67AD
:10134A002073797374656D2064617461207374729B
:10135A007563742E004372656174696E6720616EED
:10136A00642073746F72696E672073797374656D24
:10137A0020737461636B20706F696E746572207676
:10138A00616C75652E2E2E00496E697469616C69EF
:10139A007A6174696F6E2073756363657373210074
:00000001FF
