:100000000C9434000C9451000C9451000C94510049
:100010000C9451000C9451000C9451000C9451001C
:100020000C9451000C9451000C9451000C9451000C
:100030000C9451000C9451000C9451000C945100FC
:100040000C9451000C9451000C94DB010C94510061
:100050000C9451000C9451000C9451000C945100DC
:100060000C9451000C94510011241FBECFEFD8E026
:10007000DEBFCDBF13E0A0E0B1E0E4E7F1E102C0F4
:1000800005900D92A432B107D9F723E0A4E2B3E0C2
:1000900001C01D92AE37B207E1F70E949E010C9499
:1000A000B8080C94000082E291E00E94C505FBCFE5
:1000B00089E291E00E94C505FBCFFFCF85EB91E07F
:1000C0000E94C505C201F1018FEC91E00E94C505B7
:1000D000099583EE91E00E94C5050E946F0080EFB4
:1000E00091E00E94C505FFCF81E092E00E94C50526
:1000F0008DE092E00E94C505FF93FFB7FF93EF9359
:10010000DF93CF93BF93AF939F938F937F936F931F
:100110005F934F933F932F931F930F93FF92EF9211
:10012000DF92CF92BF92AF929F928F927F926F9207
:100130005F924F923F922F921F9211240F92E09163
:100140006A03F0916B03848195819EBF8DBF8EE120
:1001500092E00E94C50584E392E00E94C5050F90DD
:100160001F902F903F904F905F906F907F908F9057
:100170009F90AF90BF90CF90DF90EF90FF900F9146
:100180001F912F913F914F915F916F917F918F912F
:100190009F91AF91BF91CF91DF91EF91FF91FFBF01
:1001A000FF918FE392E00E94C50508958CE592E0EF
:1001B0000C94C5050F931F93CF938C01C62F80E637
:1001C00092E00E94C505F8016681607FCF706C2BBC
:1001D0006683CF911F910F910895AF92BF92CF92F6
:1001E000DF92EF92FF920F931F93CF93DF936C01F7
:1001F0005B01EA018BE792E00E94C5057E018CE37A
:10020000E80EF11CFF92EF928FE892E09F938F939C
:100210000E94AF05C7010E9484048C01A70160E021
:1002200070E00E94A805C8014096D8011D969C93D5
:100230008E931C97CE018C961B969C938E931A9747
:100240009F938F938DE992E09F938F930E94AF05C8
:10025000F801C086D186FE017096E00FF11FD8012B
:100260001596FC93EE931497C382D482A582B6822E
:100270008FB781A38EE590E092A383A360E0C801CD
:100280000E94DA00EDB7FEB738960FB6F894FEBFBD
:100290000FBEEDBFC801DF91CF911F910F91FF906D
:1002A000EF90DF90CF90BF90AF900895CF93DF9302
:1002B0008AEA92E00E94C50587EB92E00E94C5059C
:1002C000C8E6D3E08CE0FE0111928A95E9F788ED4B
:1002D00092E00E94C5058DB79EB79983888340E25E
:1002E00050E060E070E08DE590E00E94ED009B83BF
:1002F0008A838A819B819D838C838A819B8162E032
:100300000E94DA008B858C7F8B878B8581608B8741
:10031000E881F98182A193A19F938F9386EA92E06D
:100320009F938F930E94AF050F900F900F900F90A7
:100330008BE093E0DF91CF910C94C50560E875E206
:1003400080E090E00E94210381E090E00E94190289
:100350000E9416030E94270280E391E00E94C505D7
:1003600080E591E00E94C5050E94560186E691E075
:100370000E94C50540E250E060E070E083E590E057
:100380000E94ED0040E250E060E070E088E590E01F
:100390000E94ED008AE791E00E94C50589E891E09E
:1003A0000E94C5050E9474008DE991E00E94C50578
:1003B00089EA91E0FBCF1F920F920FB60F921124A2
:1003C0008F939F93EF93FF93CF93DF9300D01F9270
:1003D000CDB7DEB78091C00084FD27C08091C600F4
:1003E0008B838091260390E001968F7399278A83EF
:1003F000909127038A81981751F0E0912603F0E04D
:100400008B81EA5DFC4F82838A81809326030F9063
:100410000F900F90DF91CF91FF91EF919F918F916E
:100420000F900FBE0F901F9018958091C600898382
:10043000EECF9091C1009F7B9093C10080FF05C0DB
:100440008091C10080688093C10078940895E8E7A6
:10045000F3E084E191E09383828386E091E09183ED
:1004600080830895E6E2F3E08081218190E0805C62
:100470009F4F821B910960E470E00E943A04089546
:100480001F93CF93DF93182FD92FC62F0E943202CC
:10049000982FC81708F49C2FA12FBD2F80E0891337
:1004A00004C0DF91CF911F910895E0912703E80FD9
:1004B000EF73F0E0EA5DFC4F22812D938F5FEFCF69
:1004C000BF92CF92DF92EF92FF920F931F93CF9341
:1004D000DF937C016B01B42E411135C0909126034E
:1004E00080912703C0E0D0E0981711F1CC15DD050D
:1004F000F8F487010C0F1D1F12C0E0912703F0E0F4
:10050000EA5DFC4F8281F80181938F01809127037E
:1005100090E001968F7399278093270321960E947C
:100520003202882319F0CC15DD0539F7B110DECF82
:10053000CE01DF91CF911F910F91FF90EF90DF904F
:10054000CF90BF900895C0E0D0E0D0CF3091260387
:1005500020912703321791F0E0912703F0E0EA5D44
:10056000FC4F2281FC0120838091270390E00196BB
:100570008F7399278093270381E0089580E0089581
:10058000CF93DF931F92CDB7DEB71982CE010196CC
:100590000E94A6028823D1F38981082E000C990BB2
:1005A0000F90DF91CF910895FC01860F971FE817F8
:1005B000F90711F4862F08952091C00027FFFCCF82
:1005C0002091C6002193F3CF61E070E00C94D40237
:1005D000FC0180E090E08617970709F408952091C8
:1005E000C00025FFFCCF019621912093C600F3CFD8
:1005F000CF93DF931F92CDB7DEB7898361E070E0C0
:10060000CE0101960E94E8020F90DF91CF910895EC
:10061000CF93C82F8A3019F48DE00E9408038C2FE5
:100620000E94F80280E090E0CF9108951092260396
:10063000109227038091C00087FF08958091C60023
:10064000F9CFCF92DF92EF92FF926B017C01809104
:1006500064008D7F809364001092C000C11486E90D
:10066000D806E104F10409F4D9C008F05FC080E8BD
:10067000C81685E2D806E104F10409F49DC0E8F546
:1006800080E6C81689E0D806E104F10409F4BBC08D
:1006900080ECC81682E1D806E104F10409F4E2C056
:1006A0008091C00082608093C00060E079E08DE3BB
:1006B00090E0A70196010E944E04215031094109A2
:1006C00051095695479537952795211580E13807AB
:1006D00008F474C01092C00060E874E88EE190E005
:1006E000A70196010E944E04215031094109510988
:1006F000569547953795279561C0C1148BE4D80668
:10070000E104F10409F487C080E8C81680E7D80640
:10071000E104F10481F180E4C81688E3D806E1041D
:10072000F10409F0BDCF24E430E048C0C11484E8EE
:10073000D80683E0E806F10409F47EC0F8F4C11499
:100740008CE2D80681E0E806F10409F46AC0C1141D
:1007500082ECD80681E0E806F10409F465C0C11412
:1007600081EED806E104F10409F09ACF8091C0002F
:1007700082608093C00022E230E020C080E2C81690
:1007800081EAD80687E0E806F10409F45DC080E458
:10079000C81682E4D8068FE0E806F10409F45AC0CE
:1007A00080E9C81680EDD80683E0E806F10409F078
:1007B00077CF23E030E002C027E630E03093C50079
:1007C0002093C4002091260383E490E0019709F070
:1007D0004CC0209326038091C20086608093C200A3
:1007E0008091C10080618093C1008091C1008860C8
:1007F0008093C1000E94160380E090E0FF90EF908C
:10080000DF90CF9008958091C00082608093C000F7
:1008100020E433E0D3CF23E330E0D0CF29E130E050
:10082000CDCF2CE030E0CACF8091C00082608093B1
:10083000C00020E130E0C2CF8091C0008260809390
:10084000C00028E030E0BACF8091C0008260809381
:10085000C000AFCF8091C00082608093C00021E0D3
:1008600030E0ACCF2FEC30E0A9CF20E0AFCF86E274
:1008700093E0089597FB072E16F4009407D077FDB8
:1008800009D00E94700407FC05D03EF49095819534
:100890009F4F0895709561957F4F0895A1E21A2E9C
:1008A000AA1BBB1BFD010DC0AA1FBB1FEE1FFF1F14
:1008B000A217B307E407F50720F0A21BB30BE40B64
:1008C000F50B661F771F881F991F1A9469F76095AB
:1008D0007095809590959B01AC01BD01CF01089565
:1008E000AA1BBB1B51E107C0AA1FBB1FA617B70756
:1008F00010F0A61BB70B881F991F5A95A9F7809572
:100900009095BC01CD0108950F931F93CF93DF9372
:100910008230910510F482E090E0E0917603F0914E
:10092000770320E030E0A0E0B0E0309799F42115A3
:10093000310509F447C0281B390B24303105C0F5B7
:100940008A819B816115710571F1FB01938382831B
:10095000FE0111C04081518102811381481759075E
:10096000F8F04817590799F4109761F012960C9314
:10097000129713961C933296CF01DF91CF911F915E
:100980000F9108950093760310937703F4CF211508
:10099000310519F04217530718F49A01BD01EF0110
:1009A000DF01F801C2CF9093770380937603D0CF15
:1009B000FE01E20FF31F8193919322503109398395
:1009C0002883DACF2091740330917503232B41F4EF
:1009D0002091020130910301309375032093740339
:1009E00020910001309101012115310541F42DB70D
:1009F0003EB74091040150910501241B350BE09155
:100A00007403F0917503E217F307A0F42E1B3F0B5C
:100A10002817390778F0AC014E5F5F4F2417350770
:100A200048F04E0F5F1F50937503409374038193FA
:100A30009193A2CFE0E0F0E09FCFCF93DF930097B8
:100A4000D1F0FC01329713821282A0917603B0910B
:100A50007703109799F420813181820F931F2091A1
:100A60007403309175032817390709F066C0F093B5
:100A70007503E0937403DF91CF910895ED0120E0B9
:100A800030E0CE17DF0708F03FC04A815B819E014E
:100A900041155105B9F5E901FB83EA834991599163
:100AA000C40FD51FEC17FD0761F480819181029678
:100AB000840F951FE90199838883828193819B83A9
:100AC0008A83E0E0F0E012968D919C911397009755
:100AD000C9F52D913C911197CD010296820F931F7C
:100AE00020917403309175032817390721F6309748
:100AF00061F51092770310927603B0937503A0937B
:100B00007403B9CFEA01BDCFD383C2834081518141
:100B1000840F951FC817D90761F44E5F5F4F888116
:100B20009981480F591F518340838A819B81938308
:100B300082832115310509F0AECFF0937703E0935E
:100B4000760399CFFD01DC01BECF13821282D5CF8F
:100B5000DC0101C06D9341505040E0F70895A0E0E2
:100B6000B0E0E5EBF5E00C949108AE014B5F5F4F10
:100B7000FA0161917191AF0180917A0390917B03A9
:100B80000E94F105E2E00C94AD080F931F93CF9300
:100B9000DF93E0917A03F0917B03238121FF13C05F
:100BA000EC0100E010E0899160917A0370917B0381
:100BB000DB011896ED91FC91199781110CC08AE028
:100BC0000995892B11F00FEF1FEFC801DF91CF912D
:100BD0001F910F9108950995892B29F30FEF1FEFAE
:100BE000E2CFABE0B0E0E7EFF5E00C9481087C01E8
:100BF0003B018A01FC0117821682838181FFDAC1E1
:100C0000CE0101965C01F7019381F30193FD85917B
:100C100093FF81913F01882309F42FC1853239F474
:100C200093FD859193FF81913F01853229F4B701AE
:100C300090E00E94F307E7CF912C212C312CFFE1AB
:100C4000F31538F08B32D9F090F48032D9F083323A
:100C500049F137FC41C020ED280F2A3070F536FEEF
:100C600024C08AE0989E200D1124922E0EC08D3251
:100C7000A9F0803371F7232D2160322E06C0832D19
:100C80008260382EE32DE4603E2EF30193FD8591C2
:100C900093FF81913F018111D2CF1EC0F32DF860E7
:100CA0003F2EF3CF232D2061E8CFEAE02E9E200DCA
:100CB0001124222EF32DF062F3CF8E3229F436FC6C
:100CC000DCC0232D2064D9CF8C3621F4832D80689D
:100CD000382EDBCF8836C9F2982F9F7D95549330FC
:100CE000D8F08336C9F18337E9F1833509F068C05C
:100CF000280122E0420E511CF801C080D18036FE4E
:100D000045C0692D70E0C6010E94DD074C01F32D3E
:100D1000F0683F2E82010BC00C5F1F4F9FE3998349
:100D200088248394912C6501F32DFF773F2E33FCAB
:100D300005C0822D90E08816990658F1522C811436
:100D4000910471F5552009F45ECFB70180E290E07F
:100D50000E94F3075A94F6CFF801808189830E5FD1
:100D60001F4FDECF2801F2E04F0E511CF801C0806A
:100D7000D18036FE08C0692D70E0C6010E94E807E8
:100D80004C018201D1CF6FEF7FEFF7CF6FEF7FEF95
:100D9000BACFB70180E290E00E94F3072A94C9CF4E
:100DA000F60137FC859137FE81916F01B70190E024
:100DB0000E94F30751105A9421E0821A9108BFCF84
:100DC000843611F08936C1F5F80137FE2CC06081F8
:100DD0007181828193810C5F1F4FF32DFF763F2E2F
:100DE00097FF09C090958095709561957F4F8F4FC3
:100DF0009F4FF0683F2E2AE030E0A5010E942308B3
:100E0000C82ECA1836FE62C0232D2E7F422EC9146A
:100E100008F09BC034FE05C032FC03C0832D8E7EDB
:100E2000482E892C55C060817181072E000C880BDB
:100E3000990B0E5F1F4FD1CF8537B9F4232D2F7E2D
:100E4000D22E2AE030E0F801D7FE39C060817181EE
:100E5000828193810C5F1F4FA5010E942308C82E39
:100E6000CA18FD2DFF773F2ECDCF932D997FD92E18
:100E70008F3611F148F48835B9F0F70186819781F2
:100E80002B96E2E10C949D08803751F08837A9F742
:100E9000D4FE03C0FD2DF460DF2E20E130E0D3CF7F
:100EA000E92FE061DE2EF4CF34FE03C0292F266047
:100EB000D22E20E132E0C7CF28E030E0C4CF6081FD
:100EC000718180E090E00E5F1F4FC6CF8C2C432CC9
:100ED00044FE44C0FE01EC0DF11D80818033B9F564
:100EE000942D997E492EE42DE8705E2E43FC44C07B
:100EF00040FE3EC0821408F044C02C0C922C98187E
:100F000044FE44C0B70180E390E00E94F30742FE34
:100F100007C041FC38C088E790E0B7010E94F307A2
:100F2000C91408F440C0CA94D12CFFEFCF1ADF0ACD
:100F3000CA0CDB1CF60182916F01B70190E00E94A0
:100F4000F307AC14BD04B1F7FDCE8C2CC1CF42FC2D
:100F500002C08394C8CF83948394C5CF842D8678B0
:100F600011F2F7CFB70180E290E00E94F30783947B
:100F70008214C0F3512CC4CF8214E0F7522C5818BD
:100F8000BFCF9C2CBDCF88E590E0C7CF842D86785D
:100F900039F241FE06C08BE247FC8DE2B70190E0DA
:100FA000BDCF80E2F9CFB70180E390E00E94F30764
:100FB0009A94B6CF8FEF9FEF63CFFC0105906150FD
:100FC00070400110D8F7809590958E0F9F1F08955F
:100FD000FC016150704001900110D8F78095909508
:100FE0008E0F9F1F08950F931F93CF93DF93182F9A
:100FF000092FEB018B8181FD09C01FEF0FEF812FBE
:10100000902FDF91CF911F910F91089582FF14C00F
:101010002E813F818C819D81281739073CF4E8811E
:10102000F981CF0101969983888310838E819F81F6
:1010300001969F838E83E3CFE885F985812F0995FB
:10104000892BA1F3DACFFA01AA27283051F12031F8
:1010500081F1E8946F936E7F6E5F7F4F8F4F9F4F4C
:10106000AF4FB1E03ED0B4E03CD0670F781F891F8E
:101070009A1FA11D680F791F8A1F911DA11D6A0F5C
:10108000711D811D911DA11D20D009F468943F910F
:101090002AE0269F11243019305D3193DEF6CF010E
:1010A0000895462F4770405D4193B3E00FD0C9F7D4
:1010B000F6CF462F4F70405D4A3318F0495D31FD41
:1010C0004052419302D0A9F7EACFB4E0A695979594
:1010D000879577956795BA95C9F70097610571056A
:1010E00008959B01AC010A2E0694579547953795B4
:1010F0002795BA95C9F7620F731F841F951FA01D0E
:1011000008952F923F924F925F926F927F928F92AB
:101110009F92AF92BF92CF92DF92EF92FF920F9386
:101120001F93CF93DF93CDB7DEB7CA1BDB0B0FB690
:10113000F894DEBF0FBECDBF09942A88398848884D
:101140005F846E847D848C849B84AA84B984C884E3
:10115000DF80EE80FD800C811B81AA81B981CE0FDA
:10116000D11D0FB6F894DEBF0FBECDBFED010895BF
:04117000F894FFCF21
:1011740000007E03200000000001000000000000C9
:10118400C00200000000000200000000080300008C
:1011940000005461736B2031005461736B20320082
:1011A4002A2A2A2A2A2A2A2A2A2A2A2A2A2A2A2A9B
:1011B4002A2A2A2A2A2A2A2A2A2A2A2A2A2A2A00B5
:1011C400496E69742069732061626F757420746F4D
:1011D4002072756E2E0053797374656D20696E6983
:1011E4007469616C697A65642E0043726561746523
:1011F40064207461736B732E0041626F7574207484
:101204006F2072756E207461736B732E005061735E
:101214007365642072756E2E006465616420746F5A
:101224002075732E00496E7369646520616F7320A5
:101234007461736B206C61756E636865722E0072E5
:1012440069676874206265666F7265206963616CA2
:101254006C2E006166746572206963616C6C2E008B
:10126400496E73696465207461736B206578697471
:1012740000496E736964652072756E21005F675F53
:101284007379732E63757272656E743A20004162CD
:101294006F757420746F207361766520636F6E744C
:1012A40065787400526573746F7265205350004101
:1012B400626F757420746F206A756D7020746F206E
:1012C4006669727374207461736B2E00504F500002
:1012D400496E7369646520616F73207461736B2058
:1012E4007374617465207365742E00496E73696448
:1012F40065207461736B5F6372656174652100625C
:101304006C6B5F73697A653A2025640A0077615FC4
:1013140073697A653A2025640A00496E73696465C5
:1013240020696E69742E00496E697469616C697A0A
:10133400696E672073797374656D206461746120CC
:101344007374727563742E004372656174696E6799
:1013540020616E642073746F72696E672073797391
:1013640074656D20737461636B20706F696E74654E
:10137400722076616C75652E2E2E00496E69746933
:10138400616C697A6174696F6E20737563636573E8
:0413940073210000C1
:00000001FF
