:100000000C9434000C9451000C9451000C94510049
:100010000C9451000C9451000C9451000C9451001C
:100020000C9451000C9451000C9451000C9451000C
:100030000C9451000C9451000C9451000C945100FC
:100040000C9451000C9451000C94C4010C94510078
:100050000C9451000C9451000C9451000C945100DC
:100060000C9451000C94510011241FBECFEFD8E026
:10007000DEBFCDBF12E0A0E0B1E0E6E4F1E102C0F6
:1000800005900D92A83DB107D9F723E0A8EDB2E0A5
:1000900001C01D92A233B207E1F70E948B010C94BC
:1000A000A1080C94000082E291E00E94AE05FBCF13
:1000B00089E291E00E94AE05FBCFFFCFC201F101C2
:1000C00009950E94630085EB91E00C94AE05CF92F8
:1000D000DF92EF92FF920F931F93CF93DF936C0108
:1000E000EB0187EC91E00E94AE057E018CE3E80E07
:1000F000F11CFF92EF928BED91E09F938F930E9402
:100100009805C7010E946D048C01A70160E070E0B2
:100110000E949105C8014096D8011D969C938E932C
:100120001C97CE018C961B969C938E931A979F9347
:100130008F9389EE91E09F938F930E949805F80129
:10014000C086D186FE017096E00FF11FD80115968A
:10015000FC93EE931497C382D4828FB781A38EE56C
:1001600090E092A383A316968C911697807F1696A3
:100170008C93EDB7FEB738960FB6F894FEBF0FBE5E
:10018000EDBFC801DF91CF911F910F91FF90EF90CC
:10019000DF90CF900895CF93DF9386EF91E00E9498
:1001A000AE0583E092E00E94AE05CCE1D3E08CE0A6
:1001B000FE0111928A95E9F784E292E00E94AE0571
:1001C0008DB79EB79983888360E270E08DE590E0FB
:1001D0000E9467009B838A838A819B819D838C8395
:1001E000EA81FB818681807F826086838B858C7F1C
:1001F0008B878B8581608B87E881F98182A193A1B0
:100200009F938F9382EF91E09F938F930E94980525
:100210000F900F900F900F9087E592E0DF91CF91B4
:100220000C94AE058FE692E00E94AE058BE792E05B
:100230000E94AE05FF93FFB7FF93EF93DF93CF9339
:10024000BF93AF939F938F937F936F935F934F93DE
:100250003F932F931F930F93FF92EF92DF92CF92D2
:10026000BF92AF929F928F927F926F925F924F92C6
:100270003F922F921F9211240F92E0911E03F09152
:100280001F03848195819EBF8DBF8CE892E00E9400
:10029000AE0582EA92E00E94AE050F901F902F906B
:1002A0003F904F905F906F907F908F909F90AF9016
:1002B000BF90CF90DF90EF90FF900F911F912F9103
:1002C0003F914F915F916F917F918F919F91AF91EE
:1002D000BF91CF91DF91EF91FF91FFBFFF918DEA29
:1002E00092E00E94AE0508951F921F928AEC92E060
:1002F0009F938F930E9498050F900F900F900F90EF
:1003000083ED92E00C94AE05FC019681907F6F70B6
:10031000692B6683089560E875E280E090E00E94B2
:100320000A0381E090E00E9402020E94FF020E9404
:10033000100280E391E00E94AE0580E591E00E940A
:10034000AE050E94CB0086E691E00E94AE0560E219
:1003500070E083E590E00E94670060E270E088E56D
:1003600090E00E9467008AE791E00E94AE0589E86C
:1003700091E00E94AE050E9412018DE991E00E9479
:10038000AE0589EA91E0FBCF1F920F920FB60F9254
:1003900011248F939F93EF93FF93CF93DF9300D01C
:1003A0001F92CDB7DEB78091C00084FD27C0809139
:1003B000C6008B838091DA0290E001968F739927B3
:1003C0008A839091DB028A81981751F0E091DA02DA
:1003D000F0E08B81E652FD4F82838A818093DA02BE
:1003E0000F900F900F90DF91CF91FF91EF919F9120
:1003F0008F910F900FBE0F901F9018958091C6009F
:100400008983EECF9091C1009F7B9093C10080FFC4
:1004100005C08091C10080688093C10078940895E0
:10042000ECE2F3E084E191E09383828386E091E063
:10043000918380830895EAEDF2E08081218190E04C
:10044000805C9F4F821B910960E470E00E9423044E
:1004500008951F93CF93DF93182FD92FC62F0E9493
:100460001B02982FC81708F49C2FA12FBD2F80E0E6
:10047000891304C0DF91CF911F910895E091DB02B1
:10048000E80FEF73F0E0E652FD4F22812D938F5F6E
:10049000EFCFBF92CF92DF92EF92FF920F931F9315
:1004A000CF93DF937C016B01B42E411135C0909145
:1004B000DA028091DB02C0E0D0E0981711F1CC1590
:1004C000DD05F8F487010C0F1D1F12C0E091DB025F
:1004D000F0E0E652FD4F8281F80181938F01809117
:1004E000DB0290E001968F7399278093DB022196BF
:1004F0000E941B02882319F0CC15DD0539F7B110D5
:10050000DECFCE01DF91CF911F910F91FF90EF9041
:10051000DF90CF90BF900895C0E0D0E0D0CF309171
:10052000DA022091DB02321791F0E091DB02F0E079
:10053000E652FD4F2281FC0120838091DB0290E096
:1005400001968F7399278093DB0281E0089580E004
:100550000895CF93DF931F92CDB7DEB71982CE01F6
:1005600001960E948F028823D1F38981082E000C06
:10057000990B0F90DF91CF910895FC01860F971F83
:10058000E817F90711F4862F08952091C00027FF7E
:10059000FCCF2091C6002193F3CF61E070E00C9472
:1005A000BD02FC0180E090E08617970709F40895EA
:1005B0002091C00025FFFCCF019621912093C60019
:1005C000F3CFCF93DF931F92CDB7DEB7898361E07E
:1005D00070E0CE0101960E94D1020F90DF91CF9181
:1005E0000895CF93C82F8A3019F48DE00E94F1024C
:1005F0008C2F0E94E10280E090E0CF91089510924C
:10060000DA021092DB028091C00087FF089580918A
:10061000C600F9CFCF92DF92EF92FF926B017C017F
:10062000809164008D7F809364001092C000C1149B
:1006300086E9D806E104F10409F4D9C008F05FC0E6
:1006400080E8C81685E2D806E104F10409F49DC0EB
:10065000E8F580E6C81689E0D806E104F10409F45B
:10066000BBC080ECC81682E1D806E104F10409F4AD
:10067000E2C08091C00082608093C00060E079E0B9
:100680008DE390E0A70196010E94370421503109C3
:10069000410951095695479537952795211580E1D0
:1006A000380708F474C01092C00060E874E88EE166
:1006B00090E0A70196010E943704215031094109B9
:1006C0005109569547953795279561C0C1148BE41C
:1006D000D806E104F10409F487C080E8C81680E771
:1006E000D806E104F10481F180E4C81688E3D80655
:1006F000E104F10409F0BDCF24E430E048C0C114A6
:1007000084E8D80683E0E806F10409F47EC0F8F432
:10071000C1148CE2D80681E0E806F10409F46AC04D
:10072000C11482ECD80681E0E806F10409F465C042
:10073000C11481EED806E104F10409F09ACF80914A
:10074000C00082608093C00022E230E020C080E2DE
:10075000C81681EAD80687E0E806F10409F45DC00E
:1007600080E4C81682E4D8068FE0E806F10409F4B4
:100770005AC080E9C81680EDD80683E0E806F10487
:1007800009F077CF23E030E002C027E630E0309375
:10079000C5002093C4002091DA0283E490E0019721
:1007A00009F04CC02093DA028091C20086608093E9
:1007B000C2008091C10080618093C1008091C1001E
:1007C00088608093C1000E94FF0280E090E0FF906B
:1007D000EF90DF90CF9008958091C0008260809369
:1007E000C00020E433E0D3CF23E330E0D0CF29E1D1
:1007F00030E0CDCF2CE030E0CACF8091C0008260E5
:100800008093C00020E130E0C2CF8091C0008260C0
:100810008093C00028E030E0BACF8091C0008260B1
:100820008093C000AFCF8091C00082608093C000F1
:1008300021E030E0ACCF2FEC30E0A9CF20E0AFCF0B
:100840008AED92E0089597FB072E16F4009407D0E6
:1008500077FD09D00E94590407FC05D03EF490951D
:1008600081959F4F0895709561957F4F0895A1E2FE
:100870001A2EAA1BBB1BFD010DC0AA1FBB1FEE1F1A
:10088000FF1FA217B307E407F50720F0A21BB30B65
:10089000E40BF50B661F771F881F991F1A9469F7E1
:1008A00060957095809590959B01AC01BD01CF013D
:1008B0000895AA1BBB1B51E107C0AA1FBB1FA617A7
:1008C000B70710F0A61BB70B881F991F5A95A9F7F9
:1008D00080959095BC01CD0108950F931F93CF9300
:1008E000DF938230910510F482E090E0E0912A03DA
:1008F000F0912B0320E030E0A0E0B0E0309799F4D5
:100900002115310509F447C0281B390B2430310566
:10091000C0F58A819B816115710571F1FB0193839B
:100920008283FE0111C040815181028113814817E9
:100930005907F8F04817590799F4109761F0129683
:100940000C93129713961C933296CF01DF91CF919F
:100950001F910F91089500932A0310932B03F4CF56
:100960002115310519F04217530718F49A01BD01FA
:10097000EF01DF01F801C2CF90932B0380932A038C
:10098000D0CFFE01E20FF31F8193919322503109E2
:1009900039832883DACF2091280330912903232B30
:1009A00041F42091020130910301309329032093F7
:1009B000280320910001309101012115310541F4F6
:1009C0002DB73EB74091040150910501241B350B12
:1009D000E0912803F0912903E217F307A0F42E1BFE
:1009E0003F0B2817390778F0AC014E5F5F4F241793
:1009F000350748F04E0F5F1F50932903409328039B
:100A000081939193A2CFE0E0F0E09FCFCF93DF936B
:100A10000097D1F0FC01329713821282A0912A0331
:100A2000B0912B03109799F420813181820F931F8D
:100A300020912803309129032817390709F066C04F
:100A4000F0932903E0932803DF91CF910895ED01FE
:100A500020E030E0CE17DF0708F03FC04A815B811D
:100A60009E0141155105B9F5E901FB83EA834991DE
:100A70005991C40FD51FEC17FD0761F48081918156
:100A80000296840F951FE90199838883828193815F
:100A90009B838A83E0E0F0E012968D919C911397FE
:100AA0000097C9F52D913C911197CD010296820FC7
:100AB000931F20912803309129032817390721F625
:100AC000309761F510922B0310922A03B0932903FB
:100AD000A0932803B9CFEA01BDCFD383C28340815D
:100AE0005181840F951FC817D90761F44E5F5F4F7E
:100AF00088819981480F591F518340838A819B8146
:100B0000938382832115310509F0AECFF0932B0337
:100B1000E0932A0399CFFD01DC01BECF138212823C
:100B2000D5CFDC0101C06D9341505040E0F70895EE
:100B3000A0E0B0E0EEE9F5E00C947A08AE014B5F7E
:100B40005F4FFA0161917191AF0180912E039091F5
:100B50002F030E94DA05E2E00C9496080F931F938E
:100B6000CF93DF93E0912E03F0912F03238121FF98
:100B700013C0EC0100E010E0899160912E037091A8
:100B80002F03DB011896ED91FC91199781110CC090
:100B90008AE00995892B11F00FEF1FEFC801DF9153
:100BA000CF911F910F9108950995892B29F30FEF8C
:100BB0001FEFE2CFABE0B0E0E0EEF5E00C946A08A6
:100BC0007C013B018A01FC0117821682838181FF2F
:100BD000DAC1CE0101965C01F7019381F30193FD27
:100BE000859193FF81913F01882309F42FC18532BC
:100BF00039F493FD859193FF81913F01853229F46A
:100C0000B70190E00E94DC07E7CF912C212C312C1A
:100C1000FFE1F31538F08B32D9F090F48032D9F03F
:100C2000833249F137FC41C020ED280F2A3070F59E
:100C300036FE24C08AE0989E200D1124922E0EC00C
:100C40008D32A9F0803371F7232D2160322E06C03A
:100C5000832D8260382EE32DE4603E2EF30193FD58
:100C6000859193FF81913F018111D2CF1EC0F32D59
:100C7000F8603F2EF3CF232D2061E8CFEAE02E9ECF
:100C8000200D1124222EF32DF062F3CF8E3229F4A1
:100C900036FCDCC0232D2064D9CF8C3621F4832D83
:100CA0008068382EDBCF8836C9F2982F9F7D955407
:100CB0009330D8F08336C9F18337E9F1833509F0F1
:100CC00068C0280122E0420E511CF801C080D1808A
:100CD00036FE45C0692D70E0C6010E94C6074C0172
:100CE000F32DF0683F2E82010BC00C5F1F4F9FE376
:100CF000998388248394912C6501F32DFF773F2EEF
:100D000033FC05C0822D90E08816990658F1522CCC
:100D10008114910471F5552009F45ECFB70180E28A
:100D200090E00E94DC075A94F6CFF8018081898315
:100D30000E5F1F4FDECF2801F2E04F0E511CF8016D
:100D4000C080D18036FE08C0692D70E0C6010E94C7
:100D5000D1074C018201D1CF6FEF7FEFF7CF6FEF5B
:100D60007FEFBACFB70180E290E00E94DC072A94BF
:100D7000C9CFF60137FC859137FE81916F01B7012C
:100D800090E00E94DC0751105A9421E0821A9108E9
:100D9000BFCF843611F08936C1F5F80137FE2CC07B
:100DA00060817181828193810C5F1F4FF32DFF76EB
:100DB0003F2E97FF09C090958095709561957F4F64
:100DC0008F4F9F4FF0683F2E2AE030E0A5010E9430
:100DD0000C08C82ECA1836FE62C0232D2E7F422E64
:100DE000C91408F09BC034FE05C032FC03C0832D3B
:100DF0008E7E482E892C55C060817181072E000C93
:100E0000880B990B0E5F1F4FD1CF8537B9F4232D77
:100E10002F7ED22E2AE030E0F801D7FE39C0608163
:100E20007181828193810C5F1F4FA5010E940C0884
:100E3000C82ECA18FD2DFF773F2ECDCF932D997F59
:100E4000D92E8F3611F148F48835B9F0F701868133
:100E500097812B96E2E10C948608803751F0883711
:100E6000A9F7D4FE03C0FD2DF460DF2E20E130E0B1
:100E7000D3CFE92FE061DE2EF4CF34FE03C0292F5B
:100E80002660D22E20E132E0C7CF28E030E0C4CF88
:100E90006081718180E090E00E5F1F4FC6CF8C2C87
:100EA000432C44FE44C0FE01EC0DF11D80818033D3
:100EB000B9F5942D997E492EE42DE8705E2E43FC01
:100EC00044C040FE3EC0821408F044C02C0C922C5A
:100ED000981844FE44C0B70180E390E00E94DC070C
:100EE00042FE07C041FC38C088E790E0B7010E948D
:100EF000DC07C91408F440C0CA94D12CFFEFCF1A04
:100F0000DF0ACA0CDB1CF60182916F01B70190E089
:100F10000E94DC07AC14BD04B1F7FDCE8C2CC1CF10
:100F200042FC02C08394C8CF83948394C5CF842DA0
:100F3000867811F2F7CFB70180E290E00E94DC07DB
:100F400083948214C0F3512CC4CF8214E0F7522C46
:100F50005818BFCF9C2CBDCF88E590E0C7CF842D1B
:100F6000867839F241FE06C08BE247FC8DE2B7017C
:100F700090E0BDCF80E2F9CFB70180E390E00E941E
:100F8000DC079A94B6CF8FEF9FEF63CFFC010590FB
:100F9000615070400110D8F7809590958E0F9F1F7B
:100FA0000895FC016150704001900110D8F78095C0
:100FB00090958E0F9F1F08950F931F93CF93DF93EC
:100FC000182F092FEB018B8181FD09C01FEF0FEF57
:100FD000812F902FDF91CF911F910F91089582FF64
:100FE00014C02E813F818C819D81281739073CF4E4
:100FF000E881F981CF0101969983888310838E81DE
:101000009F8101969F838E83E3CFE885F985812FA9
:101010000995892BA1F3DACFFA01AA27283051F1DB
:10102000203181F1E8946F936E7F6E5F7F4F8F4F19
:101030009F4FAF4FB1E03ED0B4E03CD0670F781F78
:10104000891F9A1FA11D680F791F8A1F911DA11D5D
:101050006A0F711D811D911DA11D20D009F4689496
:101060003F912AE0269F11243019305D3193DEF63E
:10107000CF010895462F4770405D4193B3E00FD0F4
:10108000C9F7F6CF462F4F70405D4A3318F0495DDF
:1010900031FD4052419302D0A9F7EACFB4E0A695C2
:1010A0009795879577956795BA95C9F700976105E4
:1010B000710508959B01AC010A2E0694579547953A
:1010C00037952795BA95C9F7620F731F841F951F2F
:1010D000A01D08952F923F924F925F926F927F9240
:1010E0008F929F92AF92BF92CF92DF92EF92FF9238
:1010F0000F931F93CF93DF93CDB7DEB7CA1BDB0BE4
:101100000FB6F894DEBF0FBECDBF09942A88398888
:1011100048885F846E847D848C849B84AA84B9848F
:10112000C884DF80EE80FD800C811B81AA81B9819B
:10113000CE0FD11D0FB6F894DEBF0FBECDBFED01AF
:061140000895F894FFCFB2
:101146000000320320000000000100000000000043
:10115600A90200000000000200000000F1020000E9
:1011660000005461736B2031005461736B203200B0
:101176002A2A2A2A2A2A2A2A2A2A2A2A2A2A2A2AC9
:101186002A2A2A2A2A2A2A2A2A2A2A2A2A2A2A00E3
:10119600496E69742069732061626F757420746F7B
:1011A6002072756E2E0053797374656D20696E69B1
:1011B6007469616C697A65642E0043726561746551
:1011C60064207461736B732E0041626F75742074B2
:1011D6006F2072756E207461736B732E005061738D
:1011E6007365642072756E2E006465616420746F89
:1011F6002075732E00496E73696465207461736B84
:101206005F657869742E00496E7369646520746140
:10121600736B5F6372656174652100626C6B5F73EB
:10122600697A653A2025640A0077615F73697A6591
:101236003A2025640A00496E7369646520696E69FF
:10124600742E00496E697469616C697A696E6720EB
:1012560073797374656D206461746120737472753B
:1012660063742E004372656174696E6720616E64F3
:101276002073746F72696E672073797374656D205D
:10128600737461636B20706F696E7465722076612A
:101296006C75652E2E2E00496E697469616C697ACB
:1012A6006174696F6E20737563636573732100499A
:1012B6006E736964652072756E21005F675F73796E
:1012C600732E63757272656E743A200041626F7593
:1012D6007420746F207361766520636F6E74657811
:1012E6007400526573746F72652053500041626FCB
:1012F600757420746F206A756D7020746F2066692E
:10130600727374207461736B2E007265743A2025B3
:08131600640A00504F50000072
:00000001FF
