:100000000C9434000C9451000C9451000C94510049
:100010000C9451000C9451000C9451000C9451001C
:100020000C9451000C9451000C9451000C9451000C
:100030000C9451000C9451000C9451000C945100FC
:100040000C9451000C9451000C94D1010C9451006B
:100050000C9451000C9451000C9451000C945100DC
:100060000C9451000C94510011241FBECFEFD8E026
:10007000DEBFCDBF12E0A0E0B1E0E0E6F1E102C0FA
:1000800005900D92A23EB107D9F723E0A2EEB2E0AF
:1000900001C01D92AC33B207E1F70E9494010C94A9
:1000A000AE080C94000082E291E00E94BB052FEFA5
:1000B00083EC99E0215080409040E1F700C00000BF
:1000C000F2CF89E291E00E94BB052FEF83EC99E02B
:1000D000215080409040E1F700C00000F2CFC20103
:1000E000F10109950E94790088EB91E00E94BB051F
:1000F000FBCF85EC91E00E94BB05FFCFAF92BF9292
:10010000CF92DF92EF92FF920F931F93CF93DF93E3
:100110006C017B01EA0186ED91E00E94BB055E0166
:100120008CE3A80EB11CC5010E947A048C01A501C4
:1001300060E070E00E949E05C8014096D8011D96BF
:100140009C938E931C97CE018C961B969C938E93BA
:100150001A971896CC9218971996DC9219971E96B2
:10016000EC921E971F96FC921F97FE017096E00F6F
:10017000F11F1596FC93EE931497C382D482E58207
:10018000F6828FB781A38FE690E092A383A3C80184
:10019000DF91CF911F910F91FF90EF90DF90CF9063
:1001A000BF90AF9008958AEE91E00E94BB0586EF64
:1001B00091E00E94BB05FF93FFB7FF93EF93DF939E
:1001C000CF93BF93AF939F938F937F936F935F93DF
:1001D0004F933F932F931F930F93FF92EF92DF92D2
:1001E000CF92BF92AF929F928F927F926F925F92C7
:1001F0004F923F922F921F9211240F92E091280369
:10020000F0912903848195819EBF8DBF87E092E0A4
:100210000E94BB058DE192E00E94BB050F901F90EC
:100220002F903F904F905F906F907F908F909F9016
:10023000AF90BF90CF90DF90EF90FF900F911F9104
:100240002F913F914F915F916F917F918F919F91EE
:10025000AF91BF91CF91DF91EF91FF91FFBFFF91E0
:1002600088E292E00E94BB05089585E492E00C9438
:10027000BB050F931F93CF938C01C62F89E492E0A7
:100280000E94BB05F8016681607FCF706C2B66838E
:10029000CF911F910F910895CF93DF9384E692E061
:1002A0000E94BB0581E792E00E94BB05C6E2D3E055
:1002B0008CE0FE0111928A95E9F782E992E00E94B2
:1002C000BB058DB79EB79983888340E250E060E01C
:1002D00070E084E790E00E947E009B838A838A819D
:1002E0009B819D838C838A819B8162E00E9439017E
:1002F0008B858C7F8B878B8581608B87E881F981EB
:1003000082A193A19F938F9385EC92E09F938F930B
:100310000E94A5050F900F900F900F9089EC92E02E
:10032000DF91CF910C94BB0560E875E280E090E02E
:100330000E94170381E090E00E940F020E940C03CC
:100340000E941D0283E391E00E94BB0583E591E0DA
:100350000E94BB050E944C0189E691E00E94BB050A
:1003600040E250E060E070E083E590E00E947E00B3
:1003700040E250E060E070E081E690E00E947E00A4
:100380008DE791E00E94BB058CE891E00E94BB05DF
:100390000E94D30080EA91E00E94BB058CEA91E0C4
:1003A000FBCF1F920F920FB60F9211248F939F9342
:1003B000EF93FF93CF93DF9300D01F92CDB7DEB7BB
:1003C0008091C00084FD27C08091C6008B838091FE
:1003D000E40290E001968F7399278A839091E50259
:1003E0008A81981751F0E091E402F0E08B81EC51A2
:1003F000FD4F82838A818093E4020F900F900F90CB
:10040000DF91CF91FF91EF919F918F910F900FBE50
:100410000F901F9018958091C6008983EECF909120
:10042000C1009F7B9093C10080FF05C08091C100F7
:1004300080688093C10078940895E6E3F3E084E156
:1004400091E09383828386E091E091838083089595
:10045000E4EEF2E08081218190E0805C9F4F821B7E
:10046000910960E470E00E94300408951F93CF93D7
:10047000DF93182FD92FC62F0E942802982FC81754
:1004800008F49C2FA12FBD2F80E0891304C0DF91B9
:10049000CF911F910895E091E502E80FEF73F0E02E
:1004A000EC51FD4F22812D938F5FEFCFBF92CF9202
:1004B000DF92EF92FF920F931F93CF93DF937C0114
:1004C0006B01B42E411135C09091E4028091E50298
:1004D000C0E0D0E0981711F1CC15DD05F8F48701E4
:1004E0000C0F1D1F12C0E091E502F0E0EC51FD4F32
:1004F0008281F80181938F018091E50290E001965D
:100500008F7399278093E50221960E942802882301
:1005100019F0CC15DD0539F7B110DECFCE01DF9132
:10052000CF911F910F91FF90EF90DF90CF90BF90F0
:100530000895C0E0D0E0D0CF3091E4022091E502F0
:10054000321791F0E091E502F0E0EC51FD4F22818D
:10055000FC0120838091E50290E001968F7399273A
:100560008093E50281E0089580E00895CF93DF93C2
:100570001F92CDB7DEB71982CE0101960E949C0270
:100580008823D1F38981082E000C990B0F90DF91FD
:10059000CF910895FC01860F971FE817F90711F412
:1005A000862F08952091C00027FFFCCF2091C60020
:1005B0002193F3CF61E070E00C94CA02FC0180E06B
:1005C00090E08617970709F408952091C00025FF51
:1005D000FCCF019621912093C600F3CFCF93DF93F8
:1005E0001F92CDB7DEB7898361E070E0CE0101963E
:1005F0000E94DE020F90DF91CF910895CF93C82F14
:100600008A3019F48DE00E94FE028C2F0E94EE02C7
:1006100080E090E0CF9108951092E4021092E502FC
:100620008091C00087FF08958091C600F9CFCF92D6
:10063000DF92EF92FF926B017C01809164008D7FCD
:10064000809364001092C000C11486E9D806E104CA
:10065000F10409F4D9C008F05FC080E8C81685E24B
:10066000D806E104F10409F49DC0E8F580E6C81657
:1006700089E0D806E104F10409F4BBC080ECC81697
:1006800082E1D806E104F10409F4E2C08091C000DF
:1006900082608093C00060E079E08DE390E0A70184
:1006A00096010E944404215031094109510956958F
:1006B000479537952795211580E1380708F474C0D0
:1006C0001092C00060E874E88EE190E0A701960106
:1006D0000E9444042150310941095109569547951A
:1006E0003795279561C0C1148BE4D806E104F10465
:1006F00009F487C080E8C81680E7D806E104F10451
:1007000081F180E4C81688E3D806E104F10409F019
:10071000BDCF24E430E048C0C11484E8D80683E0AB
:10072000E806F10409F47EC0F8F4C1148CE2D8069E
:1007300081E0E806F10409F46AC0C11482ECD8062D
:1007400081E0E806F10409F465C0C11481EED80621
:10075000E104F10409F09ACF8091C0008260809397
:10076000C00022E230E020C080E2C81681EAD8064C
:1007700087E0E806F10409F45DC080E4C81682E46D
:10078000D8068FE0E806F10409F45AC080E9C816DB
:1007900080EDD80683E0E806F10409F077CF23E086
:1007A00030E002C027E630E03093C5002093C4005B
:1007B0002091E40283E490E0019709F04CC020937B
:1007C000E4028091C20086608093C2008091C100E3
:1007D00080618093C1008091C10088608093C100D6
:1007E0000E940C0380E090E0FF90EF90DF90CF90AC
:1007F00008958091C00082608093C00020E433E0BF
:10080000D3CF23E330E0D0CF29E130E0CDCF2CE0CF
:1008100030E0CACF8091C00082608093C00020E1A8
:1008200030E0C2CF8091C00082608093C00028E099
:1008300030E0BACF8091C00082608093C000AFCF1B
:100840008091C00082608093C00021E030E0ACCF96
:100850002FEC30E0A9CF20E0AFCF84EE92E00895F6
:1008600097FB072E16F4009407D077FD09D00E945D
:10087000660407FC05D03EF4909581959F4F08953E
:10088000709561957F4F0895A1E21A2EAA1BBB1B9C
:10089000FD010DC0AA1FBB1FEE1FFF1FA217B3074C
:1008A000E407F50720F0A21BB30BE40BF50B661F62
:1008B000771F881F991F1A9469F760957095809526
:1008C00090959B01AC01BD01CF010895AA1BBB1BF4
:1008D00051E107C0AA1FBB1FA617B70710F0A61B40
:1008E000B70B881F991F5A95A9F780959095BC0161
:1008F000CD0108950F931F93CF93DF93823091051D
:1009000010F482E090E0E0913403F091350320E0B0
:1009100030E0A0E0B0E0309799F42115310509F4FA
:1009200047C0281B390B24303105C0F58A819B81D3
:100930006115710571F1FB0193838283FE0111C082
:10094000408151810281138148175907F8F04817F7
:10095000590799F4109761F012960C931297139619
:100960001C933296CF01DF91CF911F910F91089583
:100970000093340310933503F4CF2115310519F09A
:100980004217530718F49A01BD01EF01DF01F80186
:10099000C2CF9093350380933403D0CFFE01E20F92
:1009A000F31F819391932250310939832883DACF41
:1009B0002091320330913303232B41F42091020123
:1009C00030910301309333032093320320910001CF
:1009D000309101012115310541F42DB73EB7409109
:1009E000040150910501241B350BE0913203F09175
:1009F0003303E217F307A0F42E1B3F0B2817390728
:100A000078F0AC014E5F5F4F2417350748F04E0F6A
:100A10005F1F509333034093320381939193A2CF8E
:100A2000E0E0F0E09FCFCF93DF930097D1F0FC019F
:100A3000329713821282A0913403B091350310973C
:100A400099F420813181820F931F209132033091DC
:100A500033032817390709F066C0F0933303E09396
:100A60003203DF91CF910895ED0120E030E0CE1701
:100A7000DF0708F03FC04A815B819E0141155105A7
:100A8000B9F5E901FB83EA8349915991C40FD51F58
:100A9000EC17FD0761F4808191810296840F951F08
:100AA000E90199838883828193819B838A83E0E033
:100AB000F0E012968D919C9113970097C9F52D91B6
:100AC0003C911197CD010296820F931F2091320322
:100AD000309133032817390721F6309761F51092CA
:100AE000350310923403B0933303A0933203B9CF8C
:100AF000EA01BDCFD383C28340815181840F951F0A
:100B0000C817D90761F44E5F5F4F88819981480FFC
:100B1000591F518340838A819B819383828321154E
:100B2000310509F0AECFF0933503E093340399CF4C
:100B3000FD01DC01BECF13821282D5CFDC0101C0E2
:100B40006D9341505040E0F70895A0E0B0E0EBEA2B
:100B5000F5E00C948708AE014B5F5F4FFA0161919D
:100B60007191AF0180913803909139030E94E7059C
:100B7000E2E00C94A3080F931F93CF93DF93E091CF
:100B80003803F0913903238121FF13C0EC0100E009
:100B900010E089916091380370913903DB01189658
:100BA000ED91FC91199781110CC08AE00995892B70
:100BB00011F00FEF1FEFC801DF91CF911F910F913F
:100BC00008950995892B29F30FEF1FEFE2CFABE0D2
:100BD000B0E0EDEEF5E00C9477087C013B018A0172
:100BE000FC0117821682838181FFDAC1CE01019652
:100BF0005C01F7019381F30193FD859193FF81914E
:100C00003F01882309F42FC1853239F493FD859182
:100C100093FF81913F01853229F4B70190E00E9452
:100C2000E907E7CF912C212C312CFFE1F31538F0A7
:100C30008B32D9F090F48032D9F0833249F137FC0D
:100C400041C020ED280F2A3070F536FE24C08AE01E
:100C5000989E200D1124922E0EC08D32A9F0803363
:100C600071F7232D2160322E06C0832D8260382E2D
:100C7000E32DE4603E2EF30193FD859193FF819176
:100C80003F018111D2CF1EC0F32DF8603F2EF3CF6C
:100C9000232D2061E8CFEAE02E9E200D1124222E84
:100CA000F32DF062F3CF8E3229F436FCDCC0232D15
:100CB0002064D9CF8C3621F4832D8068382EDBCF89
:100CC0008836C9F2982F9F7D95549330D8F083369B
:100CD000C9F18337E9F1833509F068C0280122E0C2
:100CE000420E511CF801C080D18036FE45C0692DEE
:100CF00070E0C6010E94D3074C01F32DF0683F2E2F
:100D000082010BC00C5F1F4F9FE39983882483945B
:100D1000912C6501F32DFF773F2E33FC05C0822D0A
:100D200090E08816990658F1522C8114910471F5BF
:100D3000552009F45ECFB70180E290E00E94E907F8
:100D40005A94F6CFF801808189830E5F1F4FDECF62
:100D50002801F2E04F0E511CF801C080D18036FE10
:100D600008C0692D70E0C6010E94DE074C018201B7
:100D7000D1CF6FEF7FEFF7CF6FEF7FEFBACFB70134
:100D800080E290E00E94E9072A94C9CFF60137FC7F
:100D9000859137FE81916F01B70190E00E94E907CC
:100DA00051105A9421E0821A9108BFCF843611F075
:100DB0008936C1F5F80137FE2CC0608171818281CE
:100DC00093810C5F1F4FF32DFF763F2E97FF09C0D5
:100DD00090958095709561957F4F8F4F9F4FF068EC
:100DE0003F2E2AE030E0A5010E941908C82ECA183B
:100DF00036FE62C0232D2E7F422EC91408F09BC000
:100E000034FE05C032FC03C0832D8E7E482E892C13
:100E100055C060817181072E000C880B990B0E5F05
:100E20001F4FD1CF8537B9F4232D2F7ED22E2AE044
:100E300030E0F801D7FE39C06081718182819381F1
:100E40000C5F1F4FA5010E941908C82ECA18FD2D5E
:100E5000FF773F2ECDCF932D997FD92E8F3611F16D
:100E600048F48835B9F0F701868197812B96E2E145
:100E70000C949308803751F08837A9F7D4FE03C04B
:100E8000FD2DF460DF2E20E130E0D3CFE92FE061CB
:100E9000DE2EF4CF34FE03C0292F2660D22E20E1AF
:100EA00032E0C7CF28E030E0C4CF6081718180E0BC
:100EB00090E00E5F1F4FC6CF8C2C432C44FE44C0E5
:100EC000FE01EC0DF11D80818033B9F5942D997EE2
:100ED000492EE42DE8705E2E43FC44C040FE3EC027
:100EE000821408F044C02C0C922C981844FE44C084
:100EF000B70180E390E00E94E90742FE07C041FC91
:100F000038C088E790E0B7010E94E907C91408F4E7
:100F100040C0CA94D12CFFEFCF1ADF0ACA0CDB1CE9
:100F2000F60182916F01B70190E00E94E907AC14CD
:100F3000BD04B1F7FDCE8C2CC1CF42FC02C083941E
:100F4000C8CF83948394C5CF842D867811F2F7CFD0
:100F5000B70180E290E00E94E90783948214C0F315
:100F6000512CC4CF8214E0F7522C5818BFCF9C2CC0
:100F7000BDCF88E590E0C7CF842D867839F241FE59
:100F800006C08BE247FC8DE2B70190E0BDCF80E266
:100F9000F9CFB70180E390E00E94E9079A94B6CFB9
:100FA0008FEF9FEF63CFFC010590615070400110FF
:100FB000D8F7809590958E0F9F1F0895FC01615082
:100FC000704001900110D8F7809590958E0F9F1F6B
:100FD00008950F931F93CF93DF93182F092FEB01E1
:100FE0008B8181FD09C01FEF0FEF812F902FDF91C3
:100FF000CF911F910F91089582FF14C02E813F81E0
:101000008C819D81281739073CF4E881F981CF0153
:1010100001969983888310838E819F8101969F8397
:101020008E83E3CFE885F985812F0995892BA1F37C
:10103000DACFFA01AA27283051F1203181F1E89462
:101040006F936E7F6E5F7F4F8F4F9F4FAF4FB1E0BB
:101050003ED0B4E03CD0670F781F891F9A1FA11DB6
:10106000680F791F8A1F911DA11D6A0F711D811DB7
:10107000911DA11D20D009F468943F912AE0269F7C
:1010800011243019305D3193DEF6CF010895462FDB
:101090004770405D4193B3E00FD0C9F7F6CF462FBC
:1010A0004F70405D4A3318F0495D31FD4052419325
:1010B00002D0A9F7EACFB4E0A695979587957795E2
:1010C0006795BA95C9F700976105710508959B0169
:1010D000AC010A2E06945795479537952795BA95F2
:1010E000C9F7620F731F841F951FA01D08952F92CB
:1010F0003F924F925F926F927F928F929F92AF92A8
:10110000BF92CF92DF92EF92FF920F931F93CF93F4
:10111000DF93CDB7DEB7CA1BDB0B0FB6F894DEBF8B
:101120000FBECDBF09942A88398848885F846E84B1
:101130007D848C849B84AA84B984C884DF80EE80FB
:10114000FD800C811B81AA81B981CE0FD11D0FB604
:10115000F894DEBF0FBECDBFED010895F894FFCF28
:1011600000003C032000000000010000000000001F
:10117000B60200000000000200000000FE020000B5
:1011800000005461736B2031005461736B20323264
:101190003232002A2A2A2A2A2A2A2A2A2A2A2A2AC9
:1011A0002A2A2A2A2A2A2A2A2A2A2A2A2A2A2A2A9F
:1011B0002A2A00496E69742069732061626F757410
:1011C00020746F2072756E2E0053797374656D20D4
:1011D000696E697469616C697A65642E0043726531
:1011E00061746564207461736B732E0041626F7566
:1011F0007420746F2072756E207461736B732E008F
:101200005061737365642072756E2E00646561644D
:1012100020746F2075732E00696E2069646C6520E0
:101220007461736B00496E73696465207461736BDC
:10123000206578697400496E736964652074617310
:101240006B5F6372656174652100496E73696465E3
:101250002072756E21005F675F7379732E637572FC
:1012600072656E743A200041626F757420746F204D
:101270007361766520636F6E746578740052657370
:10128000746F72652053500041626F757420746FE3
:10129000206A756D7020746F206669727374207493
:1012A00061736B2E00504F5000496E736964652066
:1012B000616F73207461736B207374617465207344
:1012C00065742E00496E7369646520696E69742EB9
:1012D00000496E697469616C697A696E6720737917
:1012E0007374656D206461746120737472756374C6
:1012F0002E004372656174696E6720616E642073AD
:10130000746F72696E672073797374656D2073747E
:1013100061636B20706F696E7465722076616C75A5
:10132000652E2E2E0025640A00496E697469616C71
:10133000697A6174696F6E20737563636573732175
:021340000000AB
:00000001FF
