:100000000C9434000C9451000C9451000C94510049
:100010000C9451000C9451000C9451000C9451001C
:100020000C9451000C9451000C9451000C9451000C
:100030000C9451000C9451000C9451000C945100FC
:100040000C9451000C9451000C94DF020C9451005C
:100050000C9451000C9451000C9451000C945100DC
:100060000C9451000C94510011241FBECFEFD8E026
:10007000DEBFCDBF11E0A0E0B1E0E6ECFDE002C0E4
:1000800005900D92A437B107D9F711E0A4E7B1E0CC
:1000900001C01D92AA3EB107E1F70E94B6020C947E
:1000A000E1060C94000091E097B918B888B189274F
:1000B00088B92FEF83ED90E3215080409040E1F725
:1000C00000C0000088B191E0892788B92FEF83ED47
:1000D00090E3215080409040E1F700C0000080E3B1
:1000E00091E00E94B4060C94AF0182E491E00E947A
:1000F000B40691E097B918B888B1892788B92FEF6D
:1001000083ED90E3215080409040E1F700C0000073
:1001100088B191E0892788B92FEF83ED90E32150D2
:1001200080409040E1F700C0000082E491E00E942E
:10013000B4060C94AF010E949002C201F101FF933A
:10014000FFB7FF93EF93DF93CF93BF93AF939F934B
:100150008F937F936F935F934F933F932F931F934F
:100160000F93FF92EF92DF92CF92BF92AF929F9246
:100170008F927F926F925F924F923F922F921F9237
:1001800011240F920F901F902F903F904F905F90EF
:100190006F907F908F909F90AF90BF90CF90DF90A7
:1001A000EF90FF900F911F912F913F914F915F9191
:1001B0006F917F918F919F91AF91BF91CF91DF917F
:1001C000EF91FF91FFBFFF91089591E097B918B8A3
:1001D00088B1892788B92FEF83EC99E021508040BE
:1001E0009040E1F700C0000088B191E0892788B90C
:1001F000AFEFB3EC29E0A150B0402040E1F700C0E0
:1002000000008CE0E2E0F1E0DF011D928A95E9F761
:10021000109275011092740110927701109276017C
:1002200008950F931F93CF93DF938C0180917A01F0
:1002300090917B010A9709F488C091E097B918B8AA
:1002400088B1892788B92FEF83EC99E0215080404D
:100250009040E1F700C0000088B191E0892788B99B
:100260002FEF83EC99E0215080409040E1F700C0EF
:10027000000080917A0190917B0126E0289FE001A7
:10028000299FD00D1124CE5FDE4F91E094B915B8AF
:1002900085B1892785B92FEF83EC99E02150804003
:1002A0009040E1F700C0000085B191E0892785B951
:1002B0002FEF83EC99E0215080409040E1F700C09F
:1002C00000000115110511F40E94AF0680E090E1D5
:1002D0000E9488059B838A830097E1F480917A01CC
:1002E00090917B0126E0289FF001299FF00D1124B9
:1002F000EE5FFE4F22813381232B51F121E030E06C
:1003000035832483019690937B0180937A0180E06A
:1003100090E020C0FC01E250F04F26E331E0318351
:100320002083FC01E450F04FF983E88311830083BC
:1003300080E290E0E881F9813297F983E8831182C5
:10034000108201970097B1F7C9CF81E090E002C019
:1003500082E090E0DF91CF911F910F910895FF927D
:100360000F931F93CF93DF9380917C0190917D0138
:10037000892B99F191E097B918B888B1892788B984
:100380002FEF83EC99E0215080409040E1F700C0CE
:10039000000088B191E0892788B92FEF83EC99E0BC
:1003A000215080409040E1F700C0000080910001A2
:1003B0009091010126E0289FB001299F700D112422
:1003C0006E5F7E4F40E050E084E791E0DF91CF9197
:1003D0001F910F91FF900C949D0080917A01909154
:1003E0007B01892B09F47BC091E097B918B888B1DB
:1003F000892788B92FEF83EC99E021508040904005
:10040000E1F700C0000088B191E0892788B92FEF9B
:1004100083EC99E0215080409040E1F700C000005B
:100420008091000190910101019660917A01709193
:100430007B010E943E05909301018093000121E021
:1004400030E030937D0120937C0126E0F22EF89E6F
:100450009001F99E300D112440E050E064E771E016
:10046000C9018E5F9E4F0E949D0010927D011092E7
:100470007C010091000110910101F09EE001F19ECC
:10048000D00D1124CE5FDE4F8C819D81892B39F5F3
:100490008A819B810E94200680917A0190917B0144
:1004A000019790937B0180937A010817190769F0EF
:1004B000F89EF001F99EF00D1124EE5FFE4F26E04C
:1004C000DE0101900D922A95E1F726E0289FF001C8
:1004D000299FF00D1124EE5FFE4F15821482DF91EB
:1004E000CF911F910F91FF900895CF93DF93C1E0BB
:1004F000D0E080917C0190917D01892B11F4C0E0C6
:10050000D0E080917A0190917B01C817D9071CF443
:100510000E94AF01F6CF80E090E0DF91CF91089587
:1005200080917C0190917D01892BF1F080910001F7
:100530009091010197FD18C020917A0130917B01C3
:10054000821793078CF426E0289FB001299F700D35
:1005500011246E5F7E4FFB011582148240E050E053
:1005600084E791E00E949D000E94AF0660E875E27A
:1005700080E090E00E94250481E090E00E941D034D
:100580000E941A040E942B0384E591E00E94B406A5
:100590000E94E50089E591E00E94B40683E590E0C1
:1005A0000E94110185E790E00E9411010E947502EE
:1005B00080E691E00E94B40680E090E008951F92EA
:1005C0000F920FB60F9211248F939F93EF93FF9387
:1005D000CF93DF9300D01F92CDB7DEB78091C000DC
:1005E00084FD27C08091C6008B8380917E0190E0BE
:1005F00001968F7399278A8390917F018A8198173A
:1006000051F0E0917E01F0E08B81E258FE4F828351
:100610008A8180937E010F900F900F90DF91CF9190
:10062000FF91EF919F918F910F900FBE0F901F90B0
:1006300018958091C6008983EECF9091C1009F7B71
:100640009093C10080FF05C08091C10080688093B5
:10065000C10078940895E4EEF1E082E291E09383A2
:10066000828384E191E0918380830895EEE7F1E055
:100670008081218190E0805C9F4F821B910960E422
:1006800070E00E943E0508951F93CF93DF93182FCB
:10069000D92FC62F0E943603982FC81708F49C2F15
:1006A000A12FBD2F80E0891304C0DF91CF911F914E
:1006B0000895E0917F01E80FEF73F0E0E258FE4FFC
:1006C00022812D938F5FEFCFBF92CF92DF92EF9277
:1006D000FF920F931F93CF93DF937C016B01B42E96
:1006E000411135C090917E0180917F01C0E0D0E042
:1006F000981711F1CC15DD05F8F487010C0F1D1FBB
:1007000012C0E0917F01F0E0E258FE4F8281F801D3
:1007100081938F0180917F0190E001968F739927DB
:1007200080937F0121960E943603882319F0CC150F
:10073000DD0539F7B110DECFCE01DF91CF911F91EA
:100740000F91FF90EF90DF90CF90BF900895C0E0A1
:10075000D0E0D0CF30917E0120917F01321791F00F
:10076000E0917F01F0E0E258FE4F2281FC012083FE
:1007700080917F0190E001968F73992780937F018C
:1007800081E0089580E00895CF93DF931F92CDB765
:10079000DEB71982CE0101960E94AA038823D1F305
:1007A0008981082E000C990B0F90DF91CF9108954D
:1007B000FC01860F971FE817F90711F4862F08959B
:1007C0002091C00027FFFCCF2091C6002193F3CFDA
:1007D00061E070E00C94D803FC0180E090E08617A3
:1007E000970709F408952091C00025FFFCCF0196DA
:1007F00021912093C600F3CFCF93DF931F92CDB703
:10080000DEB7898361E070E0CE0101960E94EC03BF
:100810000F90DF91CF910895CF93C82F8A3019F4AC
:100820008DE00E940C048C2F0E94FC0380E090E07D
:10083000CF91089510927E0110927F018091C000A7
:1008400087FF08958091C600F9CFCF92DF92EF9293
:10085000FF926B017C01809164008D7F8093640026
:100860001092C000C11486E9D806E104F10409F42D
:10087000D9C008F05FC080E8C81685E2D806E10458
:10088000F10409F49DC0E8F580E6C81689E0D806B1
:10089000E104F10409F4BBC080ECC81682E1D8067B
:1008A000E104F10409F4E2C08091C0008260809309
:1008B000C00060E079E08DE390E0A70196010E941E
:1008C00052052150310941095109569547953795EF
:1008D0002795211580E1380708F474C01092C000F4
:1008E00060E874E88EE190E0A70196010E9452054D
:1008F000215031094109510956954795379527955A
:1009000061C0C1148BE4D806E104F10409F487C086
:1009100080E8C81680E7D806E104F10481F180E49C
:10092000C81688E3D806E104F10409F0BDCF24E439
:1009300030E048C0C11484E8D80683E0E806F1043A
:1009400009F47EC0F8F4C1148CE2D80681E0E80610
:10095000F10409F46AC0C11482ECD80681E0E8060B
:10096000F10409F465C0C11481EED806E104F10474
:1009700009F09ACF8091C00082608093C00022E28B
:1009800030E020C080E2C81681EAD80687E0E80699
:10099000F10409F45DC080E4C81682E4D8068FE053
:1009A000E806F10409F45AC080E9C81680EDD806BB
:1009B00083E0E806F10409F077CF23E030E002C0DD
:1009C00027E630E03093C5002093C40020917E01DB
:1009D00083E490E0019709F04CC020937E01809160
:1009E000C20086608093C2008091C10080618093C4
:1009F000C1008091C10088608093C1000E941A04E8
:100A000080E090E0FF90EF90DF90CF90089580918C
:100A1000C00082608093C00020E433E0D3CF23E3A2
:100A200030E0D0CF29E130E0CDCF2CE030E0CACFAC
:100A30008091C00082608093C00020E130E0C2CF8E
:100A40008091C00082608093C00028E030E0BACF7F
:100A50008091C00082608093C000AFCF8091C000C1
:100A600082608093C00021E030E0ACCF2FEC30E01A
:100A7000A9CF20E0AFCF8EE791E0089597FB072E36
:100A800016F4009407D077FD09D00E94740507FC86
:100A900005D03EF4909581959F4F0895709561958E
:100AA0007F4F0895A1E21A2EAA1BBB1BFD010DC0AA
:100AB000AA1FBB1FEE1FFF1FA217B307E407F5070E
:100AC00020F0A21BB30BE40BF50B661F771F881FEA
:100AD000991F1A9469F760957095809590959B0180
:100AE000AC01BD01CF010895AA1BBB1B51E107C09A
:100AF000AA1FBB1FA617B70710F0A61BB70B881FAE
:100B0000991F5A95A9F780959095BC01CD0108953C
:100B1000CF93DF938230910510F482E090E0E09172
:100B2000E201F091E30120E030E0A0E0B0E0309796
:100B300039F14081518148175907B8F048175907D2
:100B400071F482819381109729F013969C938E9370
:100B500012972CC09093E3018093E20127C02115E6
:100B6000310531F04217530718F0A901DB0101C02C
:100B7000EF019A01BD01DF010280F381E02DD7CFA3
:100B800021153105F9F0281B390B2430310580F48B
:100B90008A819B816115710521F0FB01938382831A
:100BA00004C09093E3018093E201FE01329644C0B9
:100BB000FE01E20FF31F8193919322503109398393
:100BC00028833AC02091E0013091E101232B41F4C8
:100BD00020911001309111013093E1012093E00147
:100BE00020910E0130910F012115310541F42DB7EF
:100BF0003EB74091120150911301241B350BE09137
:100C0000E001F091E101E217F307A0F42E1B3F0B86
:100C10002817390778F0AC014E5F5F4F241735076E
:100C200048F04E0F5F1F5093E1014093E001819324
:100C3000919302C0E0E0F0E0CF01DF91CF91089501
:100C4000CF93DF93009709F487C0FC01329713829A
:100C50001282C091E201D091E301209781F42081BA
:100C60003181280F391F8091E0019091E1018217B5
:100C7000930779F5F093E101E093E0016DC0DE01A7
:100C800020E030E0AE17BF0750F412964D915C9112
:100C900013979D014115510509F1DA01F3CFB38393
:100CA000A28340815181840F951F8A179B0771F49D
:100CB0008D919C911197840F951F0296918380834B
:100CC00012968D919C911397938382832115310500
:100CD00029F4F093E301E093E2013EC0D9011396B9
:100CE000FC93EE9312974D915D91A40FB51FEA17F7
:100CF000FB0779F480819181840F951F0296D901B9
:100D000011969C938E938281938113969C938E93DC
:100D10001297E0E0F0E08A819B81009719F0FE01D4
:100D2000EC01F9CFCE01029628813981820F931F01
:100D30002091E0013091E1012817390769F43097DB
:100D400029F41092E3011092E20102C01382128290
:100D5000D093E101C093E001DF91CF91089581E04C
:100D600090E0F8940C94E1060F931F93CF93DF93D8
:100D7000E091E601F091E701238121FF1BC0EC0126
:100D800000E010E089916091E6017091E701DB01DC
:100D90001896ED91FC911997882331F00995892BCC
:100DA00089F30FEF1FEFEECF8AE00995892B11F43D
:100DB000C80102C08FEF9FEFDF91CF911F910F917C
:060DC0000895F894FFCF36
:100DC600FFFF650169016D01700100000000000070
:100DD600EA01200000000001000000000000C4033A
:100DE600000000000002000000000C0400000000EB
:100DF60061626F757420746F207969656C64203147
:100E0600200061626F757420746F207969656C6467
:100E160020322000696E6974006372656174650032
:100E2600646F6E65007233300072323800723200C1
:040E36007233000013
:00000001FF
