:100000000C9434000C9451000C9451000C94510049
:100010000C9451000C9451000C9451000C9451001C
:100020000C9451000C9451000C9451000C9451000C
:100030000C9451000C9451000C9451000C945100FC
:100040000C9451000C9451000C948B020C945100B0
:100050000C9451000C9451000C9451000C945100DC
:100060000C9451000C94510011241FBECFEFD8E026
:10007000DEBFCDBF11E0A0E0B1E0EEE1FDE002C0E7
:1000800005900D92AA35B107D9F713E0AAE5B1E0C2
:1000900001C01D92AC34B107E1F70E9462020C94DA
:1000A0008D060C94000091E097B918B888B18927A3
:1000B00088B92FEF83ED90E3215080409040E1F725
:1000C00000C0000088B191E0892788B92FEF83ED47
:1000D00090E3215080409040E1F700C0000084E2AE
:1000E00091E00E9460060C94960186E391E00E94E4
:1000F000600691E094B915B885B1892785B92FEFCD
:1001000083ED90E3215080409040E1F700C0000073
:1001100085B191E0892785B92FEF83ED90E32150D8
:1001200080409040E1F700C0000086E391E00E942B
:1001300060060C9496010E943C02C201F101FF93FB
:10014000FFB7FF93EF93DF93CF93BF93AF939F934B
:100150008F937F936F935F934F933F932F931F934F
:100160000F93FF92EF92DF92CF92BF92AF929F9246
:100170008F927F926F925F924F923F922F921F9237
:1001800011240F920F901F902F903F904F905F90EF
:100190006F907F908F909F90AF90BF90CF90DF90A7
:1001A000EF90FF900F911F912F913F914F915F9191
:1001B0006F917F918F919F91AF91BF91CF91DF917F
:1001C000EF91FF91FFBFFF91089591E097B918B8A3
:1001D00088B1892788B92FEF33EC89E0215030406E
:1001E0008040E1F700C0000088B1892788B99FEFFF
:1001F000A3ECB9E09150A040B040E1F700C000008E
:100200008CE791E0E4E8F1E0DF019C011D922150D0
:100210003040E1F710925B0110925A0110925D019B
:1002200010925C0108950F931F93CF93DF938C017D
:1002300080918001909181018A30910509F46CC010
:1002400026E2289FE001299FD00D1124CC57DE4FD4
:100250000115110511F40E945B0680E094E00E94F4
:1002600034059B838A830097C9F580918001909122
:10027000810126E2289FF001299FF00D1124EC57FF
:10028000FE4F22813381232B09F449C021E030E065
:10029000358324830196909381018093800191E0BE
:1002A00094B915B885B1892785B92FEF83EC99E00A
:1002B000215080409040E1F700C0000085B191E0FE
:1002C000892785B92FEF83EC99E021508040904039
:1002D000E1F700C0000080E090E023C0FC01E250A4
:1002E000FC4F26E331E031832083FC01E450FC4FD6
:1002F000F983E8831183008380E290E021E0E881C4
:10030000F9813297F983E8831182108227B918B8EE
:1003100001970097A1F7A9CF81E090E002C082E0A9
:1003200090E0DF91CF911F910F910895FF920F936D
:100330001F93CF93DF938091820190918301892B4A
:10034000B9F0809100019091010126E2289FB0014F
:10035000299F700D11246C577E4F40E050E08AE5D4
:1003600091E0DF91CF911F910F91FF900C949D0030
:1003700060918001709181016115710509F45BC084
:10038000809100019091010101960E94EA049093EE
:1003900001018093000121E030E03093830120933C
:1003A000820126E2F22EF89E9001F99E300D112472
:1003B00040E050E06AE571E0C9018C579E4F0E9411
:1003C0009D00109283011092820100910001109112
:1003D0000101F09EE001F19ED00D1124CC57DE4FBB
:1003E0008C819D81892B39F58A819B810E94CC0566
:1003F0008091800190918101019790938101809378
:1004000080010817190769F0F89EF001F99EF00DB8
:100410001124EC57FE4F26E2DE0101900D922A9541
:10042000E1F726E2289FF001299FF00D1124EC57F7
:10043000FE4F15821482DF91CF911F910F91FF9093
:100440000895CF93DF93C1E0D0E080918201909135
:100450008301892B11F4C0E0D0E08091800190915C
:100460008101C817D9071CF40E949601F6CF80E0DD
:1004700090E0DF91CF910895809182019091830166
:10048000892BF1F0809100019091010197FD18C036
:100490002091800130918101821793078CF426E22C
:1004A000289FB001299F700D11246C577E4FFB01CE
:1004B0001582148240E050E08AE591E00E949D00A0
:1004C0000E945B0660E875E280E090E00E94D10344
:1004D00081E090E00E94C9020E94C6030E94D702F8
:1004E00088E491E00E9460060E94E5008DE491E0BE
:1004F0000E94600683E590E00E94130185E790E08A
:100500000E9413010E94210284E591E00E9460068E
:1005100080E090E008951F920F920FB60F92112481
:100520008F939F93EF93FF93CF93DF9300D01F920E
:10053000CDB7DEB78091C00084FD27C08091C60092
:100540008B838091000390E001968F7399278A83B3
:10055000909101038A81981751F0E0910003F0E037
:100560008B81E050FD4F82838A81809300030F903E
:100570000F900F90DF91CF91FF91EF919F918F910D
:100580000F900FBE0F901F9018958091C600898321
:10059000EECF9091C1009F7B9093C10080FF05C07A
:1005A0008091C10080688093C10078940895E6E44A
:1005B000F3E086E191E09383828388E091E0918388
:1005C00080830895E0E0F3E08081218190E0805C09
:1005D0009F4F821B910960E470E00E94EA04089535
:1005E0001F93CF93DF93182FD92FC62F0E94E202BB
:1005F000982FC81708F49C2FA12FBD2F80E08913D6
:1006000004C0DF91CF911F910895E0910103E80F9D
:10061000EF73F0E0E050FD4F22812D938F5FEFCF1D
:10062000BF92CF92DF92EF92FF920F931F93CF93DF
:10063000DF937C016B01B42E411135C09091000312
:1006400080910103C0E0D0E0981711F1CC15DD05D1
:10065000F8F487010C0F1D1F12C0E0910103F0E0B8
:10066000E050FD4F8281F80181938F018091010359
:1006700090E001968F7399278093010321960E9441
:10068000E202882319F0CC15DD0539F7B110DECF71
:10069000CE01DF91CF911F910F91FF90EF90DF90EE
:1006A000CF90BF900895C0E0D0E0D0CF309100034C
:1006B00020910103321791F0E0910103F0E0E05046
:1006C000FD4F2281FC0120838091010390E001967F
:1006D0008F7399278093010381E0089580E0089546
:1006E000CF93DF931F92CDB7DEB71982CE0101966B
:1006F0000E9456038823D1F38981082E000C990BA0
:100700000F90DF91CF910895FC01860F971FE81796
:10071000F90711F4862F08952091C00027FFFCCF20
:100720002091C6002193F3CF61E070E00C94840324
:10073000FC0180E090E08617970709F40895209166
:10074000C00025FFFCCF019621912093C600F3CF76
:10075000CF93DF931F92CDB7DEB7898361E070E05E
:10076000CE0101960E9498030F90DF91CF910895DA
:10077000CF93C82F8A3019F48DE00E94B8038C2FD4
:100780000E94A80380E090E0CF91089510920003AA
:10079000109201038091C00087FF08958091C600E8
:1007A000F9CFCF92DF92EF92FF926B017C018091A3
:1007B00064008D7F809364001092C000C11486E9AC
:1007C000D806E104F10409F4D9C008F05FC080E85C
:1007D000C81685E2D806E104F10409F49DC0E8F5E5
:1007E00080E6C81689E0D806E104F10409F4BBC02C
:1007F00080ECC81682E1D806E104F10409F4E2C0F5
:100800008091C00082608093C00060E079E08DE359
:1008100090E0A70196010E94FE0421503109410990
:1008200051095695479537952795211580E1380749
:1008300008F474C01092C00060E874E88EE190E0A3
:10084000A70196010E94FE04215031094109510976
:10085000569547953795279561C0C1148BE4D80606
:10086000E104F10409F487C080E8C81680E7D806DF
:10087000E104F10481F180E4C81688E3D806E104BC
:10088000F10409F0BDCF24E430E048C0C11484E88D
:10089000D80683E0E806F10409F47EC0F8F4C11438
:1008A0008CE2D80681E0E806F10409F46AC0C114BC
:1008B00082ECD80681E0E806F10409F465C0C114B1
:1008C00081EED806E104F10409F09ACF8091C000CE
:1008D00082608093C00022E230E020C080E2C8162F
:1008E00081EAD80687E0E806F10409F45DC080E4F7
:1008F000C81682E4D8068FE0E806F10409F45AC06D
:1009000080E9C81680EDD80683E0E806F10409F016
:1009100077CF23E030E002C027E630E03093C50017
:100920002093C4002091000383E490E0019709F034
:100930004CC0209300038091C20086608093C20067
:100940008091C10080618093C1008091C100886066
:100950008093C1000E94C60380E090E0FF90EF907A
:10096000DF90CF9008958091C00082608093C00096
:1009700020E433E0D3CF23E330E0D0CF29E130E0EF
:10098000CDCF2CE030E0CACF8091C0008260809350
:10099000C00020E130E0C2CF8091C000826080932F
:1009A000C00028E030E0BACF8091C0008260809320
:1009B000C000AFCF8091C00082608093C00021E072
:1009C00030E0ACCF2FEC30E0A9CF20E0AFCF80E01B
:1009D00093E0089597FB072E16F4009407D077FD57
:1009E00009D00E94200507FC05D03EF49095819522
:1009F0009F4F0895709561957F4F0895A1E21A2E3B
:100A0000AA1BBB1BFD010DC0AA1FBB1FEE1FFF1FB2
:100A1000A217B307E407F50720F0A21BB30BE40B02
:100A2000F50B661F771F881F991F1A9469F7609549
:100A30007095809590959B01AC01BD01CF01089503
:100A4000AA1BBB1B51E107C0AA1FBB1FA617B707F4
:100A500010F0A61BB70B881F991F5A95A9F7809510
:100A60009095BC01CD010895CF93DF93823091051D
:100A700010F482E090E0E0914403F091450320E01F
:100A800030E0A0E0B0E0309739F140815181481763
:100A90005907B8F04817590771F48281938110976C
:100AA00029F013969C938E9312972CC09093450334
:100AB0008093440327C02115310531F042175307B5
:100AC00018F0A901DB0101C0EF019A01BD01DF01AE
:100AD0000280F381E02DD7CF21153105F9F0281BD5
:100AE000390B2430310580F48A819B8161157105B1
:100AF00021F0FB019383828304C09093450380938C
:100B00004403FE01329644C0FE01E20FF31F8193BD
:100B1000919322503109398328833AC020914203AE
:100B200030914303232B41F42091040130910501BE
:100B3000309343032093420320910201309103013B
:100B40002115310541F42DB73EB740910601509172
:100B50000701241B350BE0914203F0914303E21798
:100B6000F307A0F42E1B3F0B2817390778F0AC01D0
:100B70004E5F5F4F2417350748F04E0F5F1F5093AD
:100B80004303409342038193919302C0E0E0F0E07D
:100B9000CF01DF91CF910895CF93DF93009709F4B0
:100BA00087C0FC01329713821282C0914403D09116
:100BB0004503209781F420813181280F391F8091CE
:100BC0004203909143038217930779F5F09343030F
:100BD000E09342036DC0DE0120E030E0AE17BF07B6
:100BE00050F412964D915C9113979D01411551055A
:100BF00009F1DA01F3CFB383A28340815181840FDD
:100C0000951F8A179B0771F48D919C911197840F02
:100C1000951F02969183808312968D919C911397D4
:100C2000938382832115310529F4F0934503E093E2
:100C300044033EC0D9011396FC93EE9312974D9155
:100C40005D91A40FB51FEA17FB0779F480819181AC
:100C5000840F951F0296D90111969C938E938281E1
:100C6000938113969C938E931297E0E0F0E08A8133
:100C70009B81009719F0FE01EC01F9CFCE0102969D
:100C800028813981820F931F2091420330914303C1
:100C90002817390769F4309729F410924503109208
:100CA000440302C013821282D0934303C0934203D1
:100CB000DF91CF91089581E090E0F8940C948D0637
:100CC0000F931F93CF93DF93E0914803F091490373
:100CD000238121FF1BC0EC0100E010E089916091AD
:100CE000480370914903DB011896ED91FC91199727
:100CF000882331F00995892B89F30FEF1FEFEECF91
:100D00008AE00995892B11F4C80102C08FEF9FEF8B
:0E0D1000DF91CF911F910F910895F894FFCFBE
:100D1E00FFFF00004C032000000000010000000057
:100D2E000000700300000000000200000000B80385
:100D3E000000000061626F757420746F2079696520
:100D4E006C642031200061626F757420746F20799D
:100D5E0069656C6420322000696E69740063726587
:0A0D6E0061746500646F6E6500009B
:00000001FF
