:100000000C9434000C9449000C9449000C94490061
:100010000C9449000C9449000C9449000C9449003C
:100020000C9449000C9449000C9449000C9449002C
:100030000C9449000C9449000C9449000C9449001C
:100040000C9449000C9449000C9449000C9449000C
:100050000C9449000C9449000C9449000C944900FC
:100060000C9449000C94490011241FBECFEFD8E036
:10007000DEBFCDBF11E0A0E0B1E0EAE5F5E002C0EF
:1000800005900D92AE30B107D9F70E944B000C9449
:10009000AB020C9400008FEF84B915B880E090E0BB
:1000A0000E945E0085B1809585B948EE53E060E01E
:1000B00070E080E090E00E946D00F4CFCF93DF937A
:1000C000EC010E94CE01CE010E94590261E00E9423
:1000D00055027894DF91CF910895CF92DF92EF92FD
:1000E000FF920F931F93CF93DF93EC016A017B0183
:1000F0000E9459029701860148EE53E060E070E0EB
:100100000E945C02CE010E94B700CE010E945902FB
:10011000DF91CF911F910F91FF90EF90DF90CF90E3
:100120000C946602CF92DF92EF92FF920F931F938F
:10013000CF93DF93EC016A017B010E945902970182
:10014000860140E452E46FE070E00E945C02CE0160
:100150000E94B700CE010E945902DF91CF911F91FA
:100160000F91FF90EF90DF90CF900C94660281305A
:10017000910551F018F0029769F0089580916E0092
:10018000826080936E00089580916F0082608093FA
:100190006F000895809170008260809370000895D0
:1001A0008130910551F018F0029769F0089580911F
:1001B0006E008D7F80936E00089580916F008D7F1B
:1001C00080936F000895809170008D7F8093700000
:1001D00008954F925F926F927F928F929F92AF920B
:1001E000BF92CF92DF92EF92FF921F93CF93DF9354
:1001F00000D000D0CDB7DEB719821A821B821C82D4
:10020000029709F45AC0F8E0AF2EF1E0BF2E2A01A0
:100210003B01440C551C661C771C1C81882483946C
:10022000912C6901E12CF12CF501E10FF11D808188
:10023000D40102C0AA0FBB1F8A95E2F7A301920165
:100240000E9489029B01AC0160E074E284EF90E0BF
:100250000E946702211531054105510521F0215009
:100260003109410951091F5FC216D306E406F5069C
:1002700048F11C83DA01C901C216D306E406F5066B
:1002800010F4D701C6019A83898369817A818B81B1
:100290009C810F900F900F900F90DF91CF911F9145
:1002A000FF90EF90DF90CF90BF90AF909F908F9096
:1002B0007F906F905F904F900895E0E0AE2EE1E068
:1002C000BE2EA5CFF501E10FF11D80818111ACCFCC
:1002D000D0CF8130910571F018F00297D9F00895D0
:1002E000809164008F7D8093640083E084BD15BCA1
:1002F00017BC089580916400877F8093640082E03A
:100300008093800088E18093810010928800109291
:1003100089000895809164008F7B809364008091B0
:10032000B6008F798093B60083E08093B00010927E
:10033000B1001092B30008958130910571F018F06A
:100340000297D1F00895809164008F7D80936400BE
:1003500081E084BD15BC17BC089580916400877F3F
:10036000809364001092800080E18093810010925D
:100370008800109289000895809164008F7B80939B
:1003800064008091B6008F798093B60081E08093FD
:10039000B0001092B1001092B30008958130910521
:1003A00079F018F00297F9F00895809164008F7D3C
:1003B0008093640082E084BD15BC16BC17BC089510
:1003C00080916400877F809364001092800088E0B1
:1003D0008093810010928500109284001092890011
:1003E000109288000895809164008F7B8093640050
:1003F00082E08093B0001092B1001092B20010928F
:10040000B30008958130910579F018F0029709F151
:10041000089585B5887F85BD95B5872F8770892B11
:1004200085BD47BD16BC089580918100887F80936B
:10043000810090918100872F8770892B80938100A4
:100440005093890040938800109284001092850098
:1004500008958091B100887F8093B1009091B100A0
:10046000872F8770892B8093B1004093B30010923F
:10047000B20008958130910531F018F0029729F00B
:100480000895569A0895219A0895239A08958130DF
:10049000910531F018F0029729F00895559A0895C2
:1004A000229A0895539A08950895089583E090E05C
:1004B000089580E090E008952FEF30E00E94E90079
:1004C000AB01BC0183E090E00C9402020895A1E22C
:1004D0001A2EAA1BBB1BFD010DC0AA1FBB1FEE1FBE
:1004E000FF1FA217B307E407F50720F0A21BB30B09
:1004F000E40BF50B661F771F881F991F1A9469F785
:1005000060957095809590959B01AC01BD01CF01E0
:100510000895B7FF0C9491020E949102821B930BE5
:1005200008950E949C02A59F900DB49F900DA49FDA
:10053000800D911D11240895A29FB001B39FC001A9
:10054000A39F700D811D1124911DB29F700D811DFF
:0A0550001124911D0895F894FFCFC7
:0E055A000003050607080A00000306080A0051
:00000001FF
